:020000040800F2
:10000000C0ED002045010008490100084B0100082F
:100010004D0100084F0100085101000800000000D8
:100020000000000000000000000000005301000874
:1000300055010008000000005701000859010008A0
:100040005B0100085B0100085B010008856F000888
:100050005B0100085B0100085B0100085B01000810
:100060005B0100085B0100085B0100085B01000800
:100070005B0100085B0100085B0100085B010008F0
:100080005B0100085B0100085B0100085B010008E0
:100090005B0100085B0100085B0100085B010008D0
:1000A0005B0100085B0100085B0100085B010008C0
:1000B0005B0100085B0100085B0100085B010008B0
:1000C0005B0100085B0100085B0100085B010008A0
:1000D0005B010008699A00085B0100085B010008E9
:1000E0005B0100085B0100085B0100085B01000880
:1000F0005B0100085B0100085B0100085B01000870
:100100005B010008657000085B0100085B010008E6
:100110005B0100085B0100085B0100085B0100084F
:100120005B0100085B0100085B0100085B0100083F
:10013000DFF80CD000F058FD004800474D180108CA
:10014000C0ED002005480047FEE7FEE7FEE7FEE7BA
:10015000FEE7FEE7FEE7FEE7FEE7FEE73101000807
:100160002DE9F0410024061B254671F1000605DA51
:1001700001240027D0EB070067EB0101161E73F185
:10018000000605DA0027D2EB0702012567EB03031F
:1001900000F0B4FB86460E4617469C46AC4204D09F
:1001A0000025D0EB050E65EB010624B10020D2EB53
:1001B000000760EB030C704631463A466346BDE8E3
:1001C000F08140EA01039B0703D009E008C9121F30
:1001D00008C0042AFAD203E011F8013B00F8013B01
:1001E000521EF9D27047D2B201E000F8012B491E2D
:1001F000FBD270470022F6E710B513460A460446C4
:100200001946FFF7F0FF204610BD421E12F8013FCD
:10021000002BFBD111F8013B02F8013B002BF9D177
:100220007047421C10F8011B0029FBD1801A70474F
:1002300010B5002200E0521C835C8C5CA34201D10B
:10024000002BF8D1D8B2E1B2401A10BD034611F824
:10025000012B00F8012B002AF9D118467047F0B4A1
:1002600080EA0102D40F4200B2EB410F02D20246F3
:10027000084611464A0042D0C30DDDB2C1F3C75251
:10028000AD1A202D35DAC1F3160141F4000204B194
:100290005242C5F1200602FA06F12A411044B3EB9E
:1002A000D05F23D0C4B1012DA0EBC35009DCF0BC5A
:1002B0004FF0004202EAC352DBB200F5000000F04A
:1002C00088BB400000F1807000EBC350A0F180704B
:1002D00040EAD170490009E0490841EAC071A0EB49
:1002E000C35000F50000400800EBC350F0BC00F024
:1002F00067BB6142012202EB4101001BF6E7F0BC43
:10030000704781F00041AAE780F00040A7E780EA4B
:10031000010210B502F00043400022D04A001FD075
:10032000010E01EB1261C0F35600C2F3560240F415
:10033000000042F40002A0FB022000047F391404F4
:1003400000D0401C50EA124001D44000491EC2B205
:100350000C0604EBD010401C4008802A02D003E0B9
:10036000002010BD20F00100002900DA0020184311
:1003700010BD30B480EA010202F0004530F00042C6
:1003800021F0004013D090B1C30DD40DC2F316017B
:10039000C0F31600E41A41F4000140F400027D3479
:1003A000914201D3641C00E04900002C02DA30BC09
:1003B000002070474FF400000023914201D3891AB6
:1003C000034340084FEA4101F7D151B1914202D1B4
:1003D0004FF0004105E002D24FF0010101E06FF063
:1003E000010103EBC450284430BC00F0E9BA2DE908
:1003F000FE4F804681EA0300C00F0C46009021F0BA
:10040000004123F00045B8EB0200A94105D2404667
:10041000214690461C460B46024623F000401043FE
:1004200047D0270DC7F30A00C3F30A510290401AC0
:10043000019040286BDAC3F3130040F4801B00984E
:10044000924620B10023D2EB030A63EB0B0B019819
:100450005946C0F14002504600F081FA06460D466A
:1004600050465946019A00F099FA10EB0800614194
:10047000002487EA115284EAE7731A4340D0009AB5
:1004800062B3019A012A4FEA075215DC001B61EBA7
:1004900002014FF0004202EA0752CDE90042001C7F
:1004A00041F5801132462B4600F0D0FA03B0BDE88A
:1004B000F08F40462146F9E7001B61EB0201001C6A
:1004C00041F5801300185B412018A2F5001747EB97
:1004D000030140EAD570B6196D4111E06D084FEA8D
:1004E000360645EAC0754FEA0752001B61EB020170
:1004F000001C41F5801149084FEA300000195141B4
:1005000032462B4603B0BDE8F04F00F090BA009899
:10051000012240000023D0EB020263EBE07300985D
:1005200021464FEAE074B8EB000061EB0401E9E713
:1005300083F000435BE781F0004158E72DE9FE4F6F
:1005400081EA030404F0004421F0004100944FF0DC
:10055000000B23F0004350EA01045ED052EA03048A
:100560005BD0C3F30A54C1F30A552C44A4F2F3340C
:100570000194A0FB0254C1F3130141F48011C3F3B1
:10058000130343F4801301FB024400FB034E840A6F
:10059000970A44EA815447EA8357A4FB0768029507
:1005A0008D0A05FB07854FEA932C04FB0C542705A5
:1005B000029D4FEA065847EA1637B5EB08056EEB81
:1005C000070C870E920E47EA811742EA8312A7FBB7
:1005D0000201B6EB0B0164EB00042B0D43EA0C3374
:1005E0005E1844EB1C50DA465146E7FB0201C5F3A6
:1005F00013044FEA0B3343EA14534FEA0432019CCD
:1006000043EA0603A4F10C040294009CCDE900B473
:1006100000F01CFA03B0BDE8F08F00200146F9E7B6
:100620002DE9F04D81EA030404F0004B21F0004570
:1006300014464FF0000A23F0004150EA050220D092
:1006400054EA01021DD0C5F30A570246C5F313034D
:10065000C1F31300C1F30A5640F4801543F480132C
:10066000A7EB0608101BD64608F2FD3873EB050011
:1006700002D308F1010801E092185B41B8F1000FC4
:1006800003DA00200146BDE8F08D00204FF4801110
:10069000064684460EE0171B73EB050705D3121BB5
:1006A00063EB050306434CEA010C49084FEA3000AE
:1006B00092185B4150EA0107EDD152EA030012D0D3
:1006C00082EA040083EA0501084305D0101BAB4110
:1006D00006D20122002306E000224FF0004302E090
:1006E0006FF0010253101AEB06004CEB085110EBAF
:1006F0000A0041EB0B01BDE8F04D00F098B9C10FC5
:1007000080EAE0700844CA079623002100F061B92E
:1007100096230022114600F05CB90EB5C10F80EAA5
:10072000E0700844CA07002140F233438DE80E0010
:100730000A460B4600F08AF903B000BD0EB540F240
:10074000334102910021CDE900110A460B4600F029
:100750007DF903B000BD00F0004220F00040C10D63
:10076000C0F3160040F400007F2901DA0020704732
:10077000962903DCC1F19601C84001E09639884012
:10078000002AF4D04042704720F00040C10DC0F371
:10079000160040F400007F2901DA002070479629F6
:1007A00003DCC1F19601C840704796398840704714
:1007B00070B5C1F30A5201F000450024C1F31301E2
:1007C00040F2FF3341F480119A4201DA002070BDFB
:1007D00040F233439A42A2F2334203DC524200F029
:1007E000CDF800E090402C43F1D0404270BDC1F301
:1007F0000A5210B5C1F3130140F2FF3341F48011E6
:100800009A4201DA002010BD40F233439A42A2F22C
:10081000334203DC524200F0B1F810BD904010BDED
:1008200000F0004230F000400AD0C10D01F56071C7
:10083000C0F3160042EA0151C20840071143704755
:10084000002001467047000030B5041E71F100041D
:1008500004DB4FF00044404264EB0101141E73F1CD
:10086000000405DB1C464FF00043524263EB0403D7
:100870008B4208BF824230BD30B5041E71F10004C6
:1008800004DB4FF00044404264EB0101141E73F19D
:10089000000405DB1C464FF00043524263EB0403A7
:1008A000994208BF904230BD002801DBC0F10040F2
:1008B000002901DBC1F1004181427047002801DBC2
:1008C000C0F10040002901DBC1F1004188427047BE
:1008D00030B50B46014600202022012409E021FA10
:1008E00002F59D4205D303FA02F5491B04FA02F50D
:1008F0002844151EA2F10102F1DC30BD2DE9F05FA4
:100900000546002092469B4688460646814640247E
:100910001BE0284641464746224600F02FF8534642
:100920005A46C01A914110D311461846224600F08B
:1009300016F82D1A67EB01084F46224601200021C8
:1009400000F00DF817EB00094E41201EA4F1010440
:10095000DFDC484631462A464346BDE8F09F202A60
:1009600004DB203A00FA02F1002070479140C2F106
:10097000200320FA03F3194390407047202A04DB38
:10098000203A21FA02F00021704721FA02F3D04008
:10099000C2F120029140084319467047202A06DB25
:1009A000CB17203A41FA02F043EAE07306E041FA3D
:1009B00002F3D040C2F1200291400843194670472B
:1009C0000029A8BF7047401C490008BF20F0010063
:1009D000704710B4B0FA80FC00FA0CF050EA010441
:1009E00004BF10BC704749B1CCF1200421FA04F4D3
:1009F00011FA0CF118BF012121430843A3EB0C01AC
:100A0000CB1D4FEA00614FEA102042BF002010BC0E
:100A1000704700EBC35010440029A4BF10BC7047BE
:100A2000401C490008BF20F0010010BC704710B501
:100A3000141E73F1000408DA401C41F10001921801
:100A40005B411A4301D120F0010010BD2DE9F04DAA
:100A500092469B4611B1B1FA81F202E0B0FA80F2FF
:100A600020329046FFF77BFF04460F4640EA0A001B
:100A700041EA0B0153465A46084313D0114653EA44
:100A8000010019D0C8F140025046FFF777FF054634
:100A90000E46504659464246FFF761FF084305D0CF
:100AA000012004E020463946BDE8F08D00200543D2
:100AB00046EAE0762C4337430A986305E40AA0EB44
:100AC00008000022FD0A44EA47540A3002D50020FB
:100AD0000146E9E7010510196941DDE908450019FA
:100AE0006941BDE8F04DA2E770B521F00043034332
:100AF0000CD0C1F30A550024D5EB040564EB0403C4
:100B0000D617AD1AB34102DB0020014670BD201894
:100B100041EB025170BD2DE9F04D00231A461B1A1E
:100B20008A4103DB00200146BDE8F08DC1F30A5283
:100B3000C1F3130141F480154FF0000BD10702D12E
:100B400000186D41521E0027044640F2FF1138463E
:100B500001EB620A3E468046024600204FF48011B7
:100B6000FFF70CFFC2197141BB1846EB0100B4EB53
:100B7000030C75EB000C04D3E41A65EB0005174673
:100B80000E46241908F101006D4180463428E3DD4A
:100B9000F91946EB0600091BA84103D24FF0FF32BA
:100BA000134601E0002213461BEB070046EB0A51F7
:100BB000BDE8F04DFFF73BBFC1F30A52C1F313018B
:100BC00040F2FF3341F480119A4202DA00200146DC
:100BD000704740F233439A42A2F2334202DC52425F
:100BE000FFF7CCBEFFF7BBBE064C074D06E0E06842
:100BF00040F0010394E8070098471034AC42F6D364
:100C0000FFF79AFA806B0108A06B010830B58C18C9
:100C100010F8012B12F00F0301D110F8013B12095B
:100C200006D110F8012B03E010F8015B01F8015B1D
:100C30005B1EF9D101E001F8013B521EFBD1A1423C
:100C4000E6D3002030BD10B501F028F810BD70B516
:100C500006460C46154608E03046721C96B200F077
:100C600007F804F8010B681E85B2002DF4D170BDA1
:100C700070B50446002601F0C3F82546E11704EBE1
:100C800011610912A02202EB4101C8B201F084F8FF
:100C900001F002F9E11704EB11610912A4EB012143
:100CA000C8B201F079F801F0F7F801F0A9F8A12035
:100CB00001F072F801F0F0F8002001F035F8064676
:100CC00001F0C4F8304670BD70B505460C461646B6
:100CD00006E02178284600F009F8681C85B2641CFB
:100CE000301EA6F101018EB2F3D170BD70B504467D
:100CF0000E4601F085F82546E11704EB1161091253
:100D0000A02202EB4101C8B201F046F801F0C4F89C
:100D1000E11704EB11610912A4EB0121C8B201F043
:100D20003BF801F0B9F8304601F036F801F0B4F8BC
:100D300001F08CF842F210700CF0D8FE70BD00008B
:100D40000A48806940F0080008498861084800683E
:100D500020F00F00064908600846006840F00300D4
:100D6000086000200349086070470000001002403E
:100D7000040C0140A081214210B505200CF0B6FE04
:100D800010BD000010B500200F4908600F48006832
:100D900020F0F0000D4908600846006840F030007F
:100DA0000860FFF7E9FF00200949C1F8A401FFF737
:100DB000E3FF012004490860FFF7DEFF002005493A
:100DC000C1F8840110BD000084812142041C01404F
:100DD00000802342008021421848806940F00800CA
:100DE000164988610846806940F08000886114488F
:100DF000006820F0F000124908600846006840F0E2
:100E0000300008600F48006820F0F0000D490860CD
:100E10000846006840F03000086009480C3000685F
:100E200040F0020006490C310860064808300068AE
:100E300040F4007003490831086070470010024018
:100E4000000C0140041C014010B500200F4908604F
:100E50000F48006820F0F0000D490860084600685F
:100E600040F030000860FFF787FF01200949C1F812
:100E7000A401FFF781FF012004490860FFF77CFF10
:100E800000200549C1F8840110BD00008481214281
:100E9000041C0140008023420080214270B50546B9
:100EA00000241648006820F0F00014490860084645
:100EB000006840F0800008601E200CF017FE00263D
:100EC00011E000200E490860FFF756FF01200D4990
:100ED000C1F884016006040E0B48006808B1601C6C
:100EE000C4B2701CC6B2082EEBDB15B9FFF7ACFF1D
:100EF00001E0FFF747FF204670BD0000041C0140E1
:100F000084812142008021422481234270B504461D
:100F10001348006820F0F000114908600846006896
:100F200040F03000086000200E490860FFF724FF01
:100F3000002511E0E0090C4908606006040E01205C
:100F40000A49C1F88401FFF717FF0020054908602E
:100F5000FFF712FF681CC5B2082DEBDB70BD000067
:100F6000041C014084812142A4812342008021424B
:100F700010B50F48006820F0F0000D4908600846E1
:100F8000006840F03000086001200A4908600A4902
:100F9000C1F884011E200CF0A9FD0020054908605D
:100FA000FFF7EAFE00200449C1F8840110BD0000EB
:100FB000041C0140A48123420080214210B50D4849
:100FC000006820F0F0000B4908600846006840F017
:100FD000300008600120084908601E200CF086FDE2
:100FE00000200649C1F8A401FFF7C6FE012004490C
:100FF000086010BD041C014084812142008023420E
:10100000A481234210B500241348006820F0F000AA
:10101000114908600846006840F08000086001201F
:101020000E4908600E49C1F88401FFF7A5FE09E0EA
:10103000601CC4B2FA2C03DDFFF7C0FF012010BD15
:10104000FFF79AFE0548803800680028F0D105496E
:10105000086000BFF3E70000041C0140A4812342A4
:10106000008021428481214200224FF4803105E03A
:101070000948406B00F0800000B103E0081EA1F1B8
:101080000101F5D100BF09B90320704740F2FF50BC
:10109000014B98631046F8E700800140024605E0E6
:1010A0001348416B01F0450000B100E0F8E700BFD4
:1010B00001F0040020B104200D4B98630320704719
:1010C00001F0010018B10120094B9863F7E70848C7
:1010D0000069904201D01020F1E740F2FF50044B2C
:1010E00098631846406908231840C0B2E7E700003B
:1010F0000080014010B500204FF4803205E0134B12
:10110000596B01F0450303B103E0131EA2F1010284
:10111000F5D100BF12B101F004033BB103200B4B2A
:101120009B6B43F00403094CA36310BD01F0010362
:1011300033B10120054B9B6B43F00103034CA363C8
:1011400040F2FF53014CA36300BFEEE70080014073
:1011500005E00C48416B01F0450000B100E0F8E704
:1011600000BF01F0040038B10648806B40F0040075
:10117000044A90630320704740F2FF50014A906395
:101180000020F8E70080014070B503460C460025BA
:1011900005E02148426B02F0450000B100E0F8E7AD
:1011A00000BF02F0040038B11B48806B40F004001F
:1011B000194EB063032070BD02F0010038B116482B
:1011C000806B40F00100144EB0630120F3E7124839
:1011D0000069984201D01020EDE740F2FF500E4E1A
:1011E000B0633046416901F4604018B9080C2080B2
:1011F0002846E0E701F4005008B11320DBE701F4D2
:10120000804008B11020D6E701F4004008B10F205B
:10121000D1E72846CFE700000080014010B500204C
:101220004FF4803205E0114B596B01F0450303B1D7
:1012300003E0131EA2F10102F5D100BF12B101F0CB
:1012400004033BB10320094B9B6B43F00403074CA1
:10125000A36310BD01F0400333B10020034B9B6B2F
:1012600043F04003014CA36300BFF2E7008001405C
:1012700010B508F067FCFFF7E6FC11F05FF80DF021
:1012800069F806490122086805A10DF04DFA0349E5
:101290000122486803A10DF047FA10BD900000201C
:1012A000303A0000313A000008B52F48806940F01C
:1012B00080002D4988612D48006820F47F402B492B
:1012C00008600846006840F460500860274808300D
:1012D000006840F44060254908310860FFF77CFD54
:1012E00000202349086014200CF0E2FB0120214972
:1012F000C1F8AC0132200CF0DBFB00208DF80000BF
:101300000122694600F03CF901226946A42000F060
:1013100037F916208DF8000001226946802000F080
:101320002FF90C208DF8000001226946882000F07A
:1013300027F902226946A12000F024F89DF8000058
:1013400030280ED19DF8010003280AD19DF8010034
:101350009DF8002000EB022107A008F049FD0020C5
:1013600008BD0120FCE7000000100240041C014001
:10137000AC812342008023424354502049443A2503
:10138000780D0A002DE9F04106460F461546FFF795
:10139000EFFD7020FFF7BAFDFFF734FEF0B2FFF764
:1013A000B5FDFFF72FFEFFF7E3FD7120FFF7AEFD60
:1013B000FFF728FE00240BE0691EA14201D00121A5
:1013C00000E000210846FFF769FD3855601CC4B2F3
:1013D000AC42F1DBFFF7F2FDBDE8F08171B581B001
:1013E0000024002663480078401C624908700846C3
:1013F00000780A2190FBF1F201FB120018B15D4860
:1014000000780A2869DA012201A90220FFF7BAFF51
:101410009DF8040000F00F0000285ED09DF8040045
:1014200000F00F0006287BDA9DF8040000F00F01A1
:10143000FF208840C5B2E843C0B240F0C0004E492A
:1014400081F8200003200CF033FB00245AE04A48C6
:1014500090F820000121A1400840E8B3474931F845
:10146000140004226946FFF78DFF434890F83000CE
:1014700000F00100C0B19DF801009DF8001001F0DE
:101480000F0100EB01203C49163121F814009DF8B2
:1014900003009DF8021001F00F0100EB0121364816
:1014A0000C3020F814101DE09DF801009DF800108C
:1014B00001F00F0100EB0120C0F5F07081B22E4861
:1014C0000C3020F814109DF803009DF8021001F074
:1014D0000F0100EB012101E012E021E02648163067
:1014E00020F814109DF8000000F0F000802807D0CC
:1014F00000212148163020F814100A3820F8141062
:10150000601CC4B2052CA2DB01261B48808920B9CF
:101510001948C08A08B900200190002015490870B8
:101520009DF8040000F01F00D0B9134890F8200087
:1015300000F0800040B1104890F8200020F08000BA
:101540000D4981F820000BE04FF6FF700A498881B1
:10155000C882084690F8200000F0E00081F82000E2
:1015600004480078F02802DD0A200249087030465D
:101570007CBD00002200002028000020F85B01084C
:101580002DE9F04105460E4617464FF00008FFF7DB
:10159000EFFC7020FFF7BAFCFFF734FDE8B2FFF76D
:1015A000B5FCFFF72FFD00240BE0305DFFF7AEFC2C
:1015B000FFF728FD8046B8F1000F00D003E0601C63
:1015C000C4B2BC42F1DB00BFFFF7F8FC4046BDE807
:1015D000F0810000FCB507460D46002600240020DF
:1015E0000090019008220121102005F03FFD1020FD
:1015F000FFF754FD04460CB12046FCBD3A0401211E
:10160000372005F033FD3720FFF748FD04460CB1C5
:101610002046F2E7012303220821101F05F03AFDBE
:1016200000220121332005F021FD3320FFF736FD94
:1016300004460CB12046E0E70DE03848406B00F46A
:10164000001040B13548803000684DF82600761C07
:10165000022E00D306E03148406B40F22A61084078
:101660000028EAD000BF2D48406B00F0080038B1D8
:101670002A48806B40F00800284988630420BCE7B2
:101680002648406B00F0020038B12448806B40F0DF
:101690000200224988630220AFE72048406B00F037
:1016A000200038B11D48806B40F020001B49886342
:1016B0000620A2E71948406B00F4007038B11748C3
:1016C000806B40F4007015498863072095E740F26D
:1016D000FF501249886300980006009901F47F4189
:1016E00040EA0120009901F47F0140EA11200099AD
:1016F00040EA1160686001980006019901F47F4199
:1017000040EA0120019901F47F0140EA112001998A
:1017100040EA1160286020466FE700000080014029
:101720001CB53D48806940F080003B4988613B48DA
:10173000006820F47F40394908600846006840F49A
:101740006050086035480830006840F44060334914
:1017500008310860FFF740FB0020314908600A208B
:101760000CF0A6F901202F49C1F8AC010A200CF0B9
:101770009FF92A48006820F47060284908600846EC
:10178000006840F40060086024480830006820F4D5
:10179000806022490831086064200CF089F9042235
:1017A000694648F2401000F053F800208DF804001C
:1017B00069461DA008F01CFB1EA16846FEF738FD17
:1017C00040BB02208DF800000122694648F240002B
:1017D00000F09EF90122694648F2470000F038F80F
:1017E0009DF80000602807DA9DF8001013A008F0AB
:1017F000FFFA012000F05EF90A200CF059F90020F0
:101800008DF800000122694648F2400000F080F99E
:1018100000201CBD0020FCE700100240041C014019
:10182000AC812342008023424354502049443A254E
:10183000730D0A00393134370000000044656661D9
:10184000756C74205665723A25640D0A000000001C
:101850002DE9F04105460F461646FFF789FB282083
:10186000FFF754FBFFF7CEFB2812FFF74FFBFFF704
:10187000C9FBE8B2FFF74AFBFFF7C4FBFFF778FBB1
:101880002920FFF743FBFFF7BDFB00240BE0711E8F
:10189000A14201D0012100E000210846FFF7FEFA35
:1018A0003855601CC4B2B442F1DBFFF787FBBDE8DA
:1018B000F081000071B583B00024002679480078DB
:1018C000401C78490870084600780A2190FBF1F224
:1018D00001FB120018B1734800780A287EDA012251
:1018E00003A948F24E10FFF7B3FF9DF80C0000F07B
:1018F000800068B19DF80C0000F00F00062807DAA0
:1019000000200190012201A948F24E1000F000F9D8
:101910009DF80C0000F00F0000285FD09DF80C002F
:1019200000F00F000628D9DA9DF80C0000F00F0136
:10193000FF208840C0B201905B4890F820509DF88D
:101940000400C043C0B240F0C000574981F82000F5
:10195000084681898182C18AC183002446E05248B9
:1019600090F820000121A140084020B34F4931F8F0
:101970001400042202A9FFF76BFF4B4890F83000D7
:1019800000F00100C0B19DF808009DF8091000EBBF
:10199000012081B24448163020F814109DF80A0046
:1019A0009DF80B1000EB0120C0F5487081B23E4855
:1019B0000C3020F8141017E09DF808009DF809106D
:1019C00000EB012081B238480C3020F814109DF84B
:1019D0000A009DF80B1000EB012000E036E081B218
:1019E0003148163020F81410601CC4B2052CB6DB48
:1019F00001262D4880892E490988884205DC2A481D
:101A0000C08A2B49498888421DDD9DF80C0000F0F2
:101A10000F0001280ADD2448C0892349888108462F
:101A2000008BC88200201F4908700FE01E48808A82
:101A30001D4988810846C08BC882802003900846D3
:101A400080F8205002E00020164908709DF80C0034
:101A500000F08F0080281AD1134890F8200000F081
:101A6000800040B1104890F8200020F080000E491E
:101A700081F820000BE04FF6FF700B498881C88287
:101A8000084690F8200000F0E00081F820000548AA
:101A90000078F02802DD0A2002490870304604B0C0
:101AA00070BD00002300002028000020BA5C01085F
:101AB000F401002038B50546002400208DF8000010
:101AC0008DF8015000BF09E09DF800000F49095D45
:101AD0000844C0B28DF80000601CC4B2B82CF3D327
:101AE0009DF80000C043401CC0B28DF80000B82231
:101AF000064948F2470000F00BF80222694648F216
:101B0000FF0000F005F8002038BD0000025C01086D
:101B10002DE9F04104460E4617464FF00008FFF746
:101B200027FA2820FFF7F2F9FFF76CFA2012FFF7E7
:101B3000EDF9FFF767FAE0B2FFF7E8F9FFF762FAAD
:101B400000250BE0705DFFF7E1F9FFF75BFA8046D7
:101B5000B8F1000F00D003E0681CC5B2BD42F1DB54
:101B600000BFFFF72BFA4046BDE8F0812DE9F05F9A
:101B700082460F4614462046E21704EB5272D210FA
:101B80002146E31704EB5373DB10A4EBC3030BB143
:101B9000012300E000231A44624302F0FF099AF88F
:101BA00000600AF1010082460578812E05DB402D98
:101BB00003DBFF2D01D0FF2E0DD14FF0000B06E00F
:101BC000002007F8010B0BF1010000F0FF0BCB45E3
:101BD000F6DBBDE8F09F7F2D03DAA5F14000C5B22A
:101BE00002E0A5F14100C5B2A6F18100C6B2BE2057
:101BF00000FB065000FB09F80C2C04D0102C0CD074
:101C0000182C1ED113E01048D0F8090000EB080191
:101C10004A46384607F0BEFF13E00B48D0F81100E3
:101C200000EB08014A46384607F0B4FF09E00648D1
:101C3000D0F8190000EB08014A46384607F0AAFF21
:101C400000BF00BF00BFC4E700D9002010B50020CE
:101C50000F4908600F48006820F070400D49086087
:101C60000846006840F04050086000200A49C1F86A
:101C70009C0102200BF03AFF012005490860022078
:101C80000BF034FF00200449C1F8980110BD00009A
:101C900098812142000C0140008021420C4880695B
:101CA00040F008000A4988610A48006820F07F4037
:101CB000084908600846006840F04C500860054834
:101CC0000C30006840F0C00002490C3108607047D9
:101CD00000100240000C014010B500200F490860C0
:101CE0000F48006820F070400D4908600846006801
:101CF00040F04050086001200A49C1F89C010220D0
:101D00000BF0F4FE01200549086002200BF0EEFE06
:101D100000200449C1F8980110BD000098812142BB
:101D2000000C01400080214270B505460024174890
:101D3000006820F07040154908600846006840F0CF
:101D400000400860002616E00020114908600220CB
:101D50000BF0CCFE01200F49C1F898016006040E7B
:101D60000B487C38006808B1601CC4B201200BF03D
:101D7000BDFE701CC6B2082EE6DB15B9FFF7ACFF3E
:101D800001E0FFF763FF204670BD0000000C01403A
:101D9000988121420080214270B5044615480068B0
:101DA00020F07040134908600846006840F0405039
:101DB0000860002010490860002517E0E0090E497E
:101DC000091D08606006040E02200BF08FFE012042
:101DD0000A49C1F8980102200BF088FE002006494C
:101DE000086002200BF082FE681CC5B2082DE5DBFE
:101DF00070BD0000000C014098812142008021420A
:101E000010B50F48006820F070400D490860084682
:101E1000006840F04050086001200A4908600A4903
:101E2000C1F8980104200BF061FE0020054908600C
:101E300004200BF05BFE00200349C1F8980110BD9F
:101E4000000C01409C8121420080214210B50F48C6
:101E5000006820F070400D4908600846006840F0B6
:101E60004050086000200A4908600A49C1F89C01F6
:101E700004200BF03BFE0120054908600549C1F82C
:101E80009C0104200BF032FE10BD0000000C01404C
:101E9000988121420080214210B500241448006836
:101EA00020F07040124908600846006840F0004089
:101EB000086001200F4908600BF018FE01200E4950
:101EC000C1F898010BF012FE07E0601CC4B2FA2CB6
:101ED00003DDFFF7BBFF012010BD06488038006816
:101EE0000028F2D10349091F086000BFF4E7000091
:101EF000000C01409C8121420080214272B6704753
:101F000062B67047014608880D4AD28A904214DAB8
:101F10000888CA8810440A4AD28A90420DDD48884F
:101F2000074A9289904208DA48888A881044044A0D
:101F30009289904201DD012070470020FCE70000FB
:101F40002800002030B501460A4880890D88401BD2
:101F500083B20848C08A4D88401B82B203FB03F05D
:101F600002FB020084B28888A04201DD012030BD5E
:101F70000020FCE7280000201CB50446002001904A
:101F800000901F480088020401210D2005F06EF822
:101F90001C48406B009002E01A48406B009000988B
:101FA00000F045000028F7D0009800F0010038B19B
:101FB0001448806B40F001001249886301201CBD69
:101FC000009800F0040038B10E48806B40F0040027
:101FD0000C4988630320F2E70A4800690D2801D004
:101FE0001020ECE740F2FF5006498863084640693C
:101FF00001900198C0F3432020700020DFE700002B
:1020000014000020008001402DE9F84F80460E4664
:1020100017461C46B3462046E31704EB5373DB1008
:1020200021464FEAE47C04EB5C7C4FEAEC0CA4EB29
:10203000CC0CBCF1000F02D04FF0010C01E04FF0CE
:10204000000C6344224604EBD27C4FEA6C0C03FB89
:102050000CF3DBB20093A7F12000C7B2002555E0D6
:102060000C2C07D107EB47002B4901EB800010F83F
:10207000059013E0102C05D1284800EB071010F84C
:1020800005900BE0182C07D107EBC700244901EBA2
:10209000800010F8059001E0BDE8F88F4FF0000ACD
:1020A0002EE009F0800030B11E48028831464046DB
:1020B00000F0CEFA06E00A9820B9314640460B9A65
:1020C00000F0C6FA4FEA49604FEA1069701C86B208
:1020D00015484088B04200DCDEE7A6EB0B00A042CA
:1020E0000AD15E4608F101001FFA80F80E48008808
:1020F000404500DCD0E706E00AF1010000F0FF0AED
:10210000BAF1080FCDDB00BF681CC5B2009885424C
:10211000A6DB00BFC0E7000038440108AC48010856
:102120009C4E01080A000020F40100202DE9FF4F19
:1021300083B0074691461E46109D00200290384607
:10214000049903F09FFF8246002439E0301B411EB2
:102150000A2003F081FFB9FBF0F00A21B0FBF1F295
:1021600001FB12080298B8B9701EA04214DDB8F144
:10217000000F0FD10020AB4605EBDB71491001FBCE
:102180000471CDE9000A88B22B4620220499FFF79A
:102190003BFF13E0012002900020AB4605EBDB7112
:1021A000491001FB0471CDE9000A88B208F1300141
:1021B000CAB22B460499FFF727FF00BF601CC4B2C8
:1021C000B442C3DB07B0BDE8F08F2DE9FC5F0446E5
:1021D0000D4690469946DDE90C6704F0FF0B08EBCD
:1021E00004001FFA80F809EB05001FFA80F91CE0D3
:1021F000444502DB5C46A81985B24D4500DB1AE078
:102200002946204603F03EFF82460020CDE9000A21
:102210003A78334629462046FFF7F6FE304606EB6D
:10222000D07104EB61018CB27F1C38787E2802DC0F
:1022300038782028DCDA00BFBDE8FC9F30B50146C5
:1022400001F01F04C1F34513CA0AE50205EB43156B
:102250001544A8B230BD000070B5044600261748EA
:102260000588408845431548808846F60401884221
:1022700016D112488079012812D100200F498871A7
:102280002A2048812B2088810021084604F05CF92F
:1022900001200A4988712B2048812A20888103E087
:1022A0000021084604F050F904F040FB002602E04B
:1022B00003480480761CAE42FAD370BDF4010020BE
:1022C0000008006C2DE9F84F07460D4690469946E8
:1022D000DDF828B0A8EB0700401C1FFA80FAA9EB34
:1022E0000500401C80B20090002414E0281981B23F
:1022F000384604F029F904F019FB002607E004FB36
:102300000A603BF8100006490880701C86B25645EA
:10231000F5DB601C84B200988442E7DBBDE8F88FEF
:102320000008006C10B50446002C66D16C49887119
:10233000F02008804FF4A07048800846808849F259
:10234000413188420BD06648808846F604018842B5
:1023500005D06348808845F2103188421AD12C207C
:102360005F4908812A2048812B208881084680887F
:1023700046F60401884205D05948808845F210315C
:10238000884206D14FF4A070554908804FF4F07090
:102390004880A1E05248808845F21051884210D10F
:1023A0004FF430504E4908814FF4285048814FF483
:1023B0002C5088814FF4F07008804FF448704880AA
:1023C0008AE04748808841F6631188420DD12C206D
:1023D000434908812B2048812A2088814FF4F070DE
:1023E00008804FF44870488076E022203C490881FC
:1023F00020204881212088816EE0012038498871A1
:102400004FF4A0700880F02048800846808849F288
:102410004131884205D03248808845F210318842E7
:1024200007D12C202E4908812A2048812B20888121
:102430003FE02B48808846F60401884207D12C20D3
:10244000274908812B2048812A20888131E02448AF
:10245000808845F21051884210D14FF43050204905
:1024600008814FF4285048814FF42C5088814FF454
:10247000487008804FF4F07048801AE0184880884F
:1024800041F6631188420DD12C20154908812A207C
:1024900048812B2088814FF4487008804FF4F070F9
:1024A000488006E022200E49088121204881202012
:1024B00088810B48808846F60401884205D0084888
:1024C000808845F21031884206D14FF4F0700449FB
:1024D00008804FF4A0704880002003F0BFFE10BDBC
:1024E000F40100202DE9FF4F84B081468A46002088
:1024F000039002900698A0EB09050798A0EB0A0646
:10250000CDF80490CDF800A0002D01DD012705E0F5
:102510000DB9002702E04FF0FF376D42002E02DDBB
:102520004FF0010806E016B94FF0000802E04FF046
:10253000FF387642B54201DD2C4600E034464FF0CC
:10254000000B21E0009A91B2019A90B200F022F8BB
:102550000398284403900298304402900398A042C4
:1025600005DD0398001B0390019838440190029800
:10257000A04205DD0298001B0290009840440090A4
:102580000BF101001FFA80FB601C8345DADD08B007
:10259000BDE8F08F30B504460D462946204603F0CD
:1025A000D3FF04F0C3F9024800880249088030BD17
:1025B0000A0000200008006C2DE9F04306460F4693
:1025C0009046002445460320A0EB48093CE07A1BD6
:1025D00091B2321990B2FFF7DDFF3A1B91B2721936
:1025E00090B2FFF7D7FF3A1991B2721990B2FFF784
:1025F000D1FF7A1991B2321990B2FFF7CBFF7A1955
:1026000091B2321B90B2FFF7C5FF3A1991B2721B1B
:1026100090B2FFF7BFFF7A1B91B2321B90B2FFF767
:10262000B9FF3A1B91B2721B90B2FFF7B3FF641C63
:10263000B9F1000F03DAA000801D814404E0601BA3
:1026400080000A3081446D1EAC42C0DDBDE8F083DD
:1026500030B503460C4615465A48808849F2413148
:10266000884205D05748808845F21031884214D1FD
:102670005449488904F054F9181204F04BF9D8B2BF
:1026800004F048F94F49888904F04AF9201204F00F
:1026900041F9E0B204F03EF98CE04A48808845F206
:1026A0001051884220D14749488904F039F918125D
:1026B00004F030F943494989491C88B204F030F9E3
:1026C000D8B204F027F93F49888904F029F920128B
:1026D00004F020F93B498989491C88B204F020F9AB
:1026E000E0B204F017F965E03648808841F66311DE
:1026F000884228D13348807920B932480088401E6A
:10270000C01A83B22F49488904F00AF9181204F05C
:1027100001F9D8B204F0FEF8181204F0FBF8D8B2B0
:1027200004F0F8F82749888904F0FAF8201204F038
:10273000F1F8E0B204F0EEF8201204F0EBF8E0B2A9
:1027400004F0E8F836E01F48808846F60401884225
:102750001DD11C488079012804D11A480088401EE8
:10276000C01A83B21749488904F0DAF8181204F045
:10277000D1F8D8B204F0CEF81249888904F0D0F824
:10278000201204F0C7F8E0B204F0C4F812E00D48DB
:102790008079012804D10B480088401EC01A83B2FA
:1027A00008494889194604F0CBF80649888921462A
:1027B00004F0C6F80348008903490880881C058096
:1027C00030BD0000F4010020FE07006C2DE9FC4F35
:1027D00005460E4617469846DDF82C9000200190DD
:1027E0002748808846F60401884229D12448807908
:1027F000012825D1AB46354621480088C01B401E24
:1028000086B247461E480088A0EB0B00401E1FFA08
:1028100080F800201A4988712A2048812B2088815D
:1028200043463A4631462846CDF80090FFF7CEFFA2
:102830000120134988712B2048812A2088811CE0BF
:10284000781B401C80B20190344614E02146284693
:1028500003F07AFE04F06AF84FF0000A06E0094837
:10286000A0F800900AF101001FFA80FA0198824551
:10287000F5DB601C84B24445E8DDBDE8FC8F000058
:10288000F40100200008006C10B5FD48406940F4D8
:102890008070FB4948610846806940F00800886103
:1028A0000846806940F0200088610846806940F051
:1028B000400088610846806940F480708861F14872
:1028C000006820F00F00EF4908600846006840F0FB
:1028D00003000860EC480068EC490840EA490860D9
:1028E00008460068EA490843E7490860081F00688D
:1028F00000F0FF20091F08600846006840F0BB1088
:102900000860E44800680020E24908600846006862
:1029100040F0BB300860081F006820F07040091FBD
:1029200008600846006840F030400860DA484068B7
:1029300020F47020D84948600846406840F43020B0
:1029400048600846006820F00F00086008460068EC
:1029500040F00B00086000204FF020418861C86102
:10296000CE4908604FF02040806940F480504FF01D
:10297000204188610846806940F4804088610846AB
:10298000806940F0100088610846C069C861084647
:10299000C06940F00100C8610846C06940F4706039
:1029A000C861BE480068C1F81C01BC480068C1F895
:1029B0001C010846D0F81C0140F44070C1F81C010D
:1029C0000846806940F00100886132200BF070F801
:1029D000002003F00DFCB249888008468088FF285B
:1029E0000ADB084680884FF6FF71884204D0AC4865
:1029F0008088B0F5134F7CD1D32003F091FF03F012
:102A000037FBA749888003F033FBA549888003F092
:102A10002FFBA3498880084680884FF6FF7101EAA2
:102A200000209F49888003F023FB9D498988084343
:102A30009B4988800846808849F24131884258D0B5
:102A4000BF2003F06DFF03F013FB9549888003F06E
:102A50000FFB9349888003F00BFB9149888003F0BA
:102A600007FB8F498880084680884FF6FF7101EA8E
:102A700000208B49888003F0FBFA89498988084344
:102A8000874988800846808846F6040188427AD0C3
:102A9000D42003F045FF03F0EBFA8149888003F06E
:102AA000E7FA7F49888003F0E3FA7D498880084689
:102AB00080884FF6FF7101EA00207949888003F091
:102AC000D7FA7749898808437549888008468088FD
:102AD00045F21031884256D04FF45A4003F020FF9F
:102AE00003F0C6FA6E4988804FF45B4003F018FF8C
:102AF00000E048E003F0BCFA694988800846808815
:102B00004FF6FF7101EA0020654988804FF45C4070
:102B100003F006FF03F0ACFA614989880843604975
:102B2000888008468088B0F5004F02D145F21050E9
:102B300088805B48808845F21051884223D0A120CC
:102B400003F0EEFE03F094FA5549888003F090FA02
:102B500053498880084680884FF6FF7101EA0020BB
:102B60004F49888003F084FA4D49898808434C49CD
:102B700088800846808845F26171884203D141F619
:102B80006310474988804648818846A007F030F99D
:102B90004348808849F24131884270D1CF2003F008
:102BA000BFFE002003F0B6FEC12003F0B3FE3020CC
:102BB00003F0B0FEED2003F0B3FE642003F0AAFEA4
:102BC000032003F0A7FE122003F0A4FE812003F0EF
:102BD000A1FEE82003F0A4FE852003F09BFE102058
:102BE00003F098FE7A2003F095FECB2003F098FEC8
:102BF000392003F08FFE2C2003F08CFE002003F020
:102C000089FE342003F086FE022003F083FEF720C5
:102C100003F086FE202003F07DFEEA2003F080FE14
:102C2000002003F077FE002003F074FEC02003F0C4
:102C300077FE1B2003F06EFEC12003F071FE012021
:102C400003F068FEC52003F06BFE302003F062FE47
:102C5000302003F05FFEC72003F062FEB72003F0D0
:102C600059FE362003F05CFE482003F053FE3A2064
:102C700003F056FE552003F04DFEB1201AE0BFE0F0
:102C800000100240000C01400414014000F0FF005D
:102C9000BB0B00BB04180140002001401C0100A038
:102CA000F4010020204C43442049443A25780D0A81
:102CB0000000000003F034FE002003F02BFE1A2079
:102CC00003F028FEB62003F02BFE0A2003F022FEBC
:102CD000A22003F01FFEF22003F022FE002003F0EA
:102CE00019FE262003F01CFE012003F013FEE02055
:102CF00003F016FE0F2003F00DFE2A2003F00AFE5B
:102D0000282003F007FE082003F004FE0E2003F045
:102D100001FE082003F0FEFD542003F0FBFDA92076
:102D200003F0F8FD432003F0F5FD0A2003F0F2FD67
:102D30000F2003F0EFFD002003F0ECFD002003F076
:102D4000E9FD002003F0E6FD002003F0E3FDE120B3
:102D500003F0E6FD002003F0DDFD152003F0DAFDB1
:102D6000172003F0D7FD072003F0D4FD112003F056
:102D7000D1FD062003F0CEFD2B2003F0CBFD562025
:102D800003F0C8FD3C2003F0C5FD052003F0C2FDA3
:102D9000102003F0BFFD0F2003F0BCFD3F2003F027
:102DA000B9FD3F2003F0B6FD0F2003F0B3FD2B204B
:102DB00003F0B6FD002003F0ADFD002003F0AAFDF6
:102DC000012003F0A7FD3F2003F0A4FD2A2003F01B
:102DD000A7FD002003F09EFD002003F09BFD0020D6
:102DE00003F098FDEF2003F095FD112003F098FD0E
:102DF00078200AF05DFE292003F092FD03F01DB952
:102E0000FE48808846F6040188427CD1112003F0F8
:102E100087FD14200AF04CFED02003F081FD07202E
:102E200003F078FD422003F075FD1D2003F072FDD4
:102E3000D12003F075FD002003F06CFD1A2003F093
:102E400069FD092003F066FDD22003F069FD012031
:102E500003F060FD222003F05DFDC02003F060FD63
:102E6000102003F057FD3B2003F054FD002003F039
:102E700051FD022003F04EFD112003F04BFDC52053
:102E800003F04EFD032003F045FDC82003F048FD8C
:102E9000002003F03FFD252003F03CFD212003F03E
:102EA00039FD052003F036FD002003F033FD0A2034
:102EB00003F030FD652003F02DFD252003F02AFDF1
:102EC000772003F027FD502003F024FD0F2003F0AE
:102ED00021FD002003F01EFDF82003F021FD01205C
:102EE00003F018FDFE2003F01BFD002003F012FD8F
:102EF000022003F00FFD202003F012FD362003F026
:102F00000FFD082000E02CE003F004FD3A2003F060
:102F100007FD552003F0FEFC2B2003F001FD0020EF
:102F200003F0F8FC002003F0F5FC012003F0F2FCB4
:102F30003F2003F0EFFC2A2003F0F2FC002003F016
:102F4000E9FC002003F0E6FC012003F0E3FCDF20B5
:102F500003F0E0FC78200AF0ABFD292003F0E0FC50
:102F60004CE7A648808845F21031884240F07C87C3
:102F7000ED2003F0D5FC012003F0CCFCFE2003F093
:102F8000C9FCEE2003F0CCFCDE2003F0C3FC2120C2
:102F900003F0C0FCF12003F0C3FC012003F0BAFCF5
:102FA000DF2003F0BDFC102003F0B4FCC42003F0CC
:102FB000B7FC8F2003F0AEFCC62003F0B1FC00206C
:102FC00003F0A8FCE22003F0A5FCE22003F0A2FC41
:102FD000E22003F09FFCBF2003F0A2FCAA2003F034
:102FE00099FCB02003F09CFC0D2003F093FC002022
:102FF00003F090FC0D2003F08DFC002003F08AFC10
:10300000112003F087FC002003F084FC192003F05A
:1030100081FC002003F07EFC212003F07BFC0020DB
:1030200003F078FC2D2003F075FC002003F072FC07
:103030003D2003F06FFC002003F06CFC5D2003F0EA
:1030400069FC002003F066FC5D2003F063FC0020B7
:1030500003F060FCB12003F063FC802003F05AFC15
:10306000002003F057FC8B2003F054FC002003F0F9
:1030700051FC962003F04EFC002003F04BFCB220E4
:1030800003F04EFC002003F045FC002003F042FC5E
:10309000022003F03FFC002003F03CFC032003F07F
:1030A00039FC002003F036FCB32003F039FC00208B
:1030B00003F030FC002003F02DFC002003F02AFC7C
:1030C000002003F027FC002003F024FC002003F084
:1030D00021FC002003F01EFC002003F01BFC00205C
:1030E00003F018FC002003F015FC002003F012FC94
:1030F000002003F00FFC002003F00CFC002003F084
:1031000009FC002003F006FC002003F003FC002073
:1031100003F000FC002003F0FDFB002003F0FAFBAD
:10312000002003F0F7FB002003F0F4FB002003F085
:10313000F1FB002003F0EEFB002003F0EBFBB420DA
:1031400003F0EEFB8B2003F0E5FB002003F0E2FB35
:10315000962003F0DFFB002003F0DCFBA12003F04E
:10316000D9FB002003F0D6FBB52003F0D9FB0220E9
:1031700003F0D0FB002003F0CDFB032003F0CAFBDB
:10318000002003F0C7FB042003F0C4FB002003F081
:10319000C1FBB62003F0C4FB002003F0BBFB002002
:1031A00003F0B8FBB72003F0BBFB002003F0B2FB39
:1031B000002003F0AFFB3F2003F0ACFB002003F046
:1031C000A9FB5E2003F0A6FB002003F0A3FB642014
:1031D00003F0A0FB002003F09DFB8C2003F09AFB82
:1031E000002003F097FBAC2003F094FB002003F0D9
:1031F00091FBDC2003F08EFB002001E0F4010020B5
:1032000003F088FB702003F085FB002003F082FBB5
:10321000902003F07FFB002003F07CFBEB2003F009
:1032200079FB002003F076FBDC2003F073FB002029
:1032300003F070FBB82003F073FB002003F06AFB7F
:10324000002003F067FB002003F064FB002003F084
:1032500061FB002003F05EFB002003F05BFB00201D
:1032600003F058FB002003F055FBBA2003F058FB95
:10327000242003F04FFB002003F04CFB002003F060
:1032800049FB002003F046FBC12003F049FB20204E
:1032900003F040FB002003F03DFB542003F03AFB19
:1032A000002003F037FBFF2003F034FB002003F085
:1032B00031FBC22003F034FB0A2003F02BFB00207B
:1032C00003F028FB042003F025FB002003F022FB81
:1032D000C32003F025FB3C2003F01CFB002003F07F
:1032E00019FB3A2003F016FB002003F013FB3920F2
:1032F00003F010FB002003F00DFB372003F00AFB66
:10330000002003F007FB3C2003F004FB002003F047
:1033100001FB362003F0FEFA002003F0FBFA322016
:1033200003F0F8FA002003F0F5FA2F2003F0F2FA88
:10333000002003F0EFFA2C2003F0ECFA002003F059
:10334000E9FA292003F0E6FA002003F0E3FA262048
:1033500003F0E0FA002003F0DDFA242003F0DAFAAB
:10336000002003F0D7FA242003F0D4FA002003F061
:10337000D1FA232003F0CEFA002003F0CBFA3C2050
:1033800003F0C8FA002003F0C5FA362003F0C2FAB1
:10339000002003F0BFFA322003F0BCFA002003F053
:1033A000B9FA2F2003F0B6FA002003F0B3FA2C206C
:1033B00003F0B0FA002003F0ADFA292003F0AAFAD6
:1033C000002003F0A7FA262003F0A4FA002003F05F
:1033D000A1FA242003F09EFA002003F09BFA242097
:1033E00003F098FA002003F095FA232003F092FAF4
:1033F000002003F08FFAC42003F092FA622003F059
:1034000089FA002003F086FA052003F083FA0020F1
:1034100003F080FA842003F07DFA002003F07AFAAA
:10342000F02003F077FA002003F074FA182003F07C
:1034300071FA002003F06EFAA42003F06BFA00206A
:1034400003F068FA182003F065FA002003F062FA2E
:10345000502003F05FFA002003F05CFA0C2003F028
:1034600059FA002003F056FA172003F053FA00200F
:1034700003F050FA952003F04DFA002003F04AFAC9
:10348000F32003F047FA002003F044FAE62003F0AB
:1034900041FA002003F03EFAC52003F041FA322041
:1034A00003F038FA002003F035FA442003F032FA32
:1034B000002003F02FFA652003F02CFA002003F01F
:1034C00029FA762003F026FA002003F023FA882058
:1034D00003F020FA002003F01DFAC62003F020FAC2
:1034E000202003F017FA002003F014FA172003F04D
:1034F00011FA002003F00EFA012003F00BFA00206D
:1035000003F008FAC72003F00BFA002003F002FAD8
:10351000002003F0FFF9002003F0FCF9002003F085
:10352000F9F9C82003F0FCF9002003F0F3F90020BA
:1035300003F0F0F9002003F0EDF9002003F0EAF9C0
:10354000C92003F0EDF9002003F0E4F9002003F0B6
:10355000E1F9002003F0DEF9002003F0DBF90020A0
:1035600003F0D8F9002003F0D5F9002003F0D2F9D8
:10357000002003F0CFF9002003F0CCF9002003F085
:10358000C9F9002003F0C6F9002003F0C3F90020B8
:1035900003F0C0F9002003F0BDF9002003F0BAF9F0
:1035A000002003F0B7F9E02003F0BAF9162003F089
:1035B000B1F9002003F0AEF91C2003F0ABF90020B4
:1035C00003F0A8F9212003F0A5F9002003F0A2F9E7
:1035D000362003F09FF9002003F09CF9462003F009
:1035E00099F9002003F096F9522003F093F9002096
:1035F00003F090F9642003F08DF9002003F08AF9BC
:103600007A2003F087F9002003F084F98B2003F07F
:1036100081F9002003F07EF9992003F07BF9002066
:1036200003F078F9A82003F075F9002003F072F98F
:10363000B92003F06FF9002003F06CF9C42003F007
:1036400069F9002003F066F9CA2003F063F900204D
:1036500003F060F9D22003F05DF9002003F05AF97D
:10366000D92003F057F9002003F054F9E02003F0CB
:1036700051F9002003F04EF9F32003F04BF900203C
:1036800003F048F9E12003F04BF9162003F042F96A
:10369000002003F03FF91C2003F03CF9002003F068
:1036A00039F9222003F036F9002003F033F93620EF
:1036B00003F030F9002003F02DF9452003F02AF93A
:1036C000002003F027F9522003F024F9002003F032
:1036D00021F9642003F01EF9002003F01BF97A2081
:1036E00003F018F9002003F015F98B2003F012F90C
:1036F000002003F00FF9992003F00CF9002003F0EB
:1037000009F9A82003F006F9002003F003F9B92015
:1037100003F000F9002003F0FDF8C42003F0FAF8EC
:10372000002003F0F7F8CA2003F0F4F8002003F0BB
:10373000F1F8D22003F0EEF8002003F0EBF8D820E7
:1037400003F0E8F8002003F0E5F8E02003F0E2F8E9
:10375000002003F0DFF8F32003F0DCF8002003F092
:10376000D9F8E22003F0DCF8052003F0D3F80020BC
:1037700003F0D0F80B2003F0CDF8002003F0CAF8D6
:103780001B2003F0C7F8002003F0C4F8342003F036
:10379000C1F8002003F0BEF8442003F0BBF800207D
:1037A00003F0B8F84F2003F0B5F8002003F0B2F8AA
:1037B000612003F0AFF8002003F0ACF8792003F0AB
:1037C000A9F8002003F0A6F8882003F0A3F8002051
:1037D00003F0A0F8972003F09DF8002003F09AF87A
:1037E000A62003F097F8002003F094F8B72003F028
:1037F00091F8002003F08EF8C22003F08BF800202F
:1038000003F088F8C72003F085F8002003F082F861
:10381000D12003F07FF8002003F07CF8D62003F0DD
:1038200079F8002003F076F8DD2003F073F800202B
:1038300003F070F8F32003F06DF8002003F06AF84D
:10384000E32003F06DF8052003F064F8002003F096
:1038500061F80A2003F05EF8002003F05BF81C20FA
:1038600003F058F8002003F055F8332003F052F825
:10387000002003F04FF8442003F04CF8002003F040
:1038800049F8502003F046F8002003F043F8622086
:1038900003F040F8002003F03DF8782003F03AF8F8
:1038A000002003F037F8882003F034F8002003F0FC
:1038B00031F8972003F02EF8002003F02BF8A62013
:1038C00003F028F8002003F025F8B72003F022F8D1
:1038D000002003F01FF8C22003F01CF8002003F0C2
:1038E00019F8C72003F016F8002003F013F8D120D0
:1038F00003F010F8002003F00DF8D52003F00AF8CB
:10390000002003F007F8DD2003F004F8002003F0A6
:1039100001F8F32002F0FEFF002002F0FBFFE4209C
:1039200002F0FEFF012002F0F5FF002002F0F2FF9E
:10393000012002F0EFFF002002F0ECFF022002F075
:10394000E9FF002002F0E6FF2A2002F0E3FF00205A
:1039500002F0E0FF3C2002F0DDFF002002F0DAFF81
:103960004B2002F0D7FF002002F0D4FF5D2002F0D0
:10397000D1FF002002F0CEFF742002F0CBFF002028
:1039800002F0C8FF842002F0C5FF002002F0C2FF51
:10399000932002F0BFFF002002F0BCFFA22002F043
:1039A000B9FF002002F0B6FFB32002F0B3FF002001
:1039B00002F0B0FFBE2002F0ADFF002002F0AAFF2F
:1039C000C42002F0A7FF002002F0A4FFCD2002F0E7
:1039D000A1FF002002F09EFFD32002F09BFF0020F9
:1039E00002F098FFDD2002F095FF002002F092FF28
:1039F000F32002F08FFF002002F08CFFE52002F0A0
:103A00008FFF002002F086FF002002F083FF0020DD
:103A100002F080FF002002F07DFF022002F07AFF1A
:103A2000002002F077FF292002F074FF002002F04E
:103A300071FF3C2002F06EFF002002F06BFF4B2074
:103A400002F068FF002002F065FF5D2002F062FFD7
:103A5000002002F05FFF742002F05CFF002002F003
:103A600059FF842002F056FF002002F053FF9320FC
:103A700002F050FF002002F04DFFA22002F04AFFAA
:103A8000002002F047FFB32002F044FF002002F0C4
:103A900041FFBE2002F03EFF002002F03BFFC420A9
:103AA00002F038FF002002F035FFCD2002F032FF97
:103AB000002002F02FFFD32002F02CFF002002F0A4
:103AC00029FFDC2002F026FF002002F023FFF32074
:103AD00002F020FF002002F01DFFE62002F020FF90
:103AE000112002F017FF002002F014FF342002F032
:103AF00011FF002002F00EFF562002F00BFF002005
:103B000002F008FF762002F005FF002002F002FF1D
:103B1000772002F0FFFE002002F0FCFE662002F09B
:103B2000F9FE002002F0F6FE882002F0F3FE0020ED
:103B300002F0F0FE992002F0EDFE002002F0EAFE15
:103B4000BB2002F0E7FE002002F0E4FE992002F024
:103B5000E1FE002002F0DEFE662002F0DBFE002027
:103B600002F0D8FE552002F0D5FE002002F0D2FE71
:103B7000552002F0CFFE002002F0CCFE452002F0DE
:103B8000C9FE002002F0C6FE432002F0C3FE002062
:103B900002F0C0FE442002F0BDFE002002F0BAFE9A
:103BA000E72002F0BDFE322002F0B4FE002002F059
:103BB000B1FE552002F0AEFE002002F0ABFE7620F2
:103BC00002F0A8FE002002F0A5FE662002F0A2FE90
:103BD000002002F09FFE672002F09CFE002002F011
:103BE00099FE672002F096FE002002F093FE8720E7
:103BF00002F090FE002002F08DFE992002F08AFE75
:103C0000002002F087FEBB2002F084FE002002F0BC
:103C100081FE992002F07EFE002002F07BFE7720DC
:103C200002F078FE002002F075FE442002F072FEE1
:103C3000002002F06FFE562002F06CFE002002F021
:103C400069FE232002F066FE002002F063FE3320AE
:103C500002F060FE002002F05DFE452002F05AFEF8
:103C6000002002F057FEE82002F05AFE002002F089
:103C700051FE002002F04EFE992002F04BFE002083
:103C800002F048FE872002F045FE002002F042FECE
:103C9000882002F03FFE002002F03CFE772002F078
:103CA00039FE002002F036FE662002F033FE0020CE
:103CB00002F030FE882002F02DFE002002F02AFEE5
:103CC000AA2002F027FE002002F024FEBB2002F012
:103CD00021FE002002F01EFE992002F01BFE0020B3
:103CE00002F018FE662002F015FE002002F012FE1F
:103CF000552002F00FFE002002F00CFE552002F0CD
:103D000009FE002002F006FE442002F003FE00201F
:103D100002F000FE442002F0FDFD002002F0FAFD5A
:103D2000552002F0F7FD002002F0F4FDE92002F03A
:103D3000F7FDAA2002F0EEFD002002F0EBFD0020CE
:103D400002F0E8FD002002F0E5FD002002F0E8FDB1
:103D5000AA2002F0DFFDCF2002F0E2FD002002F0F9
:103D6000D9FD002002F0D6FD002002F0D3FD002096
:103D700002F0D0FD002002F0CDFD002002F0CAFDCF
:103D8000002002F0C7FD002002F0C4FD002002F078
:103D9000C1FD002002F0BEFD002002F0BBFD0020AE
:103DA00002F0B8FD002002F0B5FD002002F0B2FDE7
:103DB000002002F0AFFD002002F0ACFD002002F078
:103DC000A9FDF02002F0ACFD002002F0A3FD502080
:103DD00002F0A0FD002002F09DFD002002F09AFDFF
:103DE000002002F097FDF32002F09AFD002002F07F
:103DF00091FDF92002F094FD062002F08BFD1020C9
:103E000002F088FD292002F085FD002002F082FDED
:103E10003A2002F085FD552002F07CFD112002F0D1
:103E20007FFD642009F044FE292002F079FD352051
:103E300002F076FD002002F06DFD512002F070FDD1
:103E4000FF2002F067FD532002F06AFD2C2002F0F3
:103E500061FD552002F064FD822002F05BFD2C2004
:103E600002F05EFD02F0E9B8FE48808845F210518C
:103E700088427DD155214FF4704002F061FDAA21A6
:103E80004FF2010002F05CFD52214FF2020002F0FD
:103E900057FD08214FF2030002F052FD01214FF2BD
:103EA000040002F04DFD0D214FF4304002F048FDBA
:103EB0000D214BF2010002F043FD0D214BF20200F7
:103EC00002F03EFD34214FF4364002F039FD34213A
:103ED0004BF2016002F034FD34214BF2026002F03B
:103EE0002FFD0D214FF4314002F02AFD0D214BF240
:103EF000011002F025FD0D214BF2021002F020FD11
:103F000034214FF4374002F01BFD34214BF2017095
:103F100002F016FD34214BF2027002F011FD002177
:103F20004FF4324002F00CFD00214BF2012002F070
:103F300007FD00214BF2022002F002FD24214FF484
:103F4000384002F0FDFC24214BF6010002F0F8FCA1
:103F500024214BF6020002F0F3FC01214FF43F4014
:103F600002F0EEFC0F214FF4334002F0E9FC00E0D8
:103F7000FDE30F214BF2013002F0E2FC0F214BF286
:103F8000023002F0DDFC34214FF4394002F0D8FC5D
:103F900034214BF6011002F0D3FC34214BF6021011
:103FA00002F0CEFC08214FF4354002F0C9FC082194
:103FB0004BF2015002F0C4FC08214BF2025002F017
:103FC000BFFC03214FF4424002F0BAFC24214FF41D
:103FD0003A4002F0B5FC24214BF6012002F0B0FC7F
:103FE00024214BF6022002F0ABFC00214FF43C40B0
:103FF00002F0A6FC78214BF6014002F0A1FC002162
:104000004BF6024002F09CFC00214FF43D4002F0D0
:1040100097FC78214BF6015002F092FC00214BF600
:10402000025002F08DFC00214FF43E4002F088FC6B
:1040300064214BF6016002F083FC00214FF45140F3
:1040400002F07EFC33214DF2011002F079FC0021D8
:104050004DF2021002F074FC34214DF2031002F014
:104060006FFC00214DF2041002F06AFC3A214DF27F
:10407000051002F065FC00214DF2061002F060FC14
:104080004A214DF2071002F05BFC00214DF20810AE
:1040900002F056FC5C214DF2091002F051FC0021A7
:1040A0004DF20A1002F04CFC81214DF20B1002F08F
:1040B00047FC00214DF20C1002F042FCA6214DF20B
:1040C0000D1002F03DFC00214DF20E1002F038FC04
:1040D000E5214DF20F1002F033FC01214DF21010DA
:1040E00002F02EFC13214DF2111002F029FC0121E7
:1040F0004DF2121002F024FC54214DF2131002F084
:104100001FFC01214DF2141002F01AFC82214DF225
:10411000151002F015FC01214DF2161002F010FCF2
:10412000CA214DF2171002F00BFC02214DF21810BB
:1041300002F006FC00214DF2191002F001FC0221F0
:104140004DF21A1002F0FCFB01214DF21B1002F09F
:10415000F7FB02214DF21C1002F0F2FB34214DF26C
:104160001D1002F0EDFB02214DF21E1002F0E8FBE3
:1041700067214DF21F1002F0E3FB02214DF22010E7
:1041800002F0DEFB84214DF2211002F0D9FB022166
:104190004DF2221002F0D4FBA4214DF2231002F0C4
:1041A000CFFB02214DF2241002F0CAFBB7214DF2E1
:1041B000251002F0C5FB02214DF2261002F0C0FBD3
:1041C000CF214DF2271002F0BBFB02214DF2281047
:1041D00002F0B6FBDE214DF2291002F0B1FB022104
:1041E0004DF22A1002F0ACFBF2214DF22B1002F03E
:1041F000A7FB02214DF22C1002F0A2FBFE214DF292
:104200002D1002F09DFB03214DF22E1002F098FBC1
:1042100010214DF22F1002F093FB03214DF23010CC
:1042200002F08EFB33214DF2311002F089FB0321A5
:104230004DF2321002F084FB6D214DF2331002F08A
:104240007FFB00214FF4524002F07AFB33214DF204
:10425000012002F075FB00214DF2022002F070FBFC
:10426000342101E0F40100204DF2032002F068FB4C
:1042700000214DF2042002F063FB3A214DF20520AB
:1042800002F05EFB00214DF2062002F059FB4A21AC
:104290004DF2072002F054FB00214DF2082002F0FD
:1042A0004FFB5C214DF2092002F04AFB00214DF248
:1042B0000A2002F045FB81214DF20B2002F040FB69
:1042C00000214DF20C2002F03BFBA6214DF20D2007
:1042D00002F036FB00214DF20E2002F031FBE52109
:1042E0004DF20F2002F02CFB01214DF2102002F0C4
:1042F00027FB13214DF2112002F022FB01214DF288
:10430000122002F01DFB54214DF2132002F018FB85
:1043100001214DF2142002F013FB82214DF21520F1
:1043200002F00EFB01214DF2162002F009FBCA211A
:104330004DF2172002F004FB02214DF2182002F08A
:10434000FFFA00214DF2192002F0FAFA02214DF293
:104350001A2002F0F5FA01214DF21B2002F0F0FACA
:1043600002214DF21C2002F0EBFA34214DF21D2007
:1043700002F0E6FA02214DF21E2002F0E1FA672176
:104380004DF21F2002F0DCFA02214DF2202002F053
:10439000D7FA84214DF2212002F0D2FA02214DF207
:1043A000222002F0CDFAA4214DF2232002F0C8FA17
:1043B00002214DF2242002F0C3FAB7214DF225204C
:1043C00002F0BEFA02214DF2262002F0B9FACF2106
:1043D0004DF2272002F0B4FA02214DF2282002F01B
:1043E000AFFADE214DF2292002F0AAFA02214DF2A5
:1043F0002A2002F0A5FAF2214DF22B2002F0A0FAB9
:1044000002214DF22C2002F09BFAFE214DF22D20CC
:1044100002F096FA03214DF22E2002F091FA1021BB
:104420004DF22F2002F08CFA03214DF2302002F0E1
:1044300087FA33214DF2312002F082FA03214DF246
:10444000322002F07DFA6D214DF2332002F078FA2D
:1044500000214FF4534002F073FA33214DF2013042
:1044600002F06EFA00214DF2023002F069FA3421B6
:104470004DF2033002F064FA00214DF2043002F0F4
:104480005FFA3A214DF2053002F05AFA00214DF25E
:10449000063002F055FA4A214DF2073002F050FA88
:1044A00000214DF2083002F04BFA5C214DF2093048
:1044B00002F046FA00214DF20A3002F041FA812161
:1044C0004DF20B3002F03CFA00214DF20C3002F0BC
:1044D00037FAA6214DF20D3002F032FA00214DF2EA
:1044E0000E3002F02DFAE5214DF20F3002F028FADD
:1044F00001214DF2103002F023FA13214DF2113058
:1045000002F01EFA01214DF2123002F019FA542184
:104510004DF2133002F014FA01214DF2143002F082
:104520000FFA82214DF2153002F00AFA01214DF204
:10453000163002F005FACA214DF2173002F000FAE7
:1045400002214DF2183002F0FBF900214DF2193032
:1045500002F0F6F902214DF21A3002F0F1F90121D0
:104560004DF21B3002F0ECF902214DF21C3002F04A
:10457000E7F934214DF21D3002F0E2F902214DF24B
:104580001E3002F0DDF967214DF21F3002F0D8F93C
:1045900002214DF2203002F0D3F984214DF2213076
:1045A00002F0CEF902214DF2223002F0C9F9A42125
:1045B0004DF2233002F0C4F902214DF2243002F012
:1045C000BFF9B7214DF2253002F0BAF902214DF2C0
:1045D000263002F0B5F9CF214DF2273002F0B0F9C4
:1045E00002214DF2283002F0ABF9DE214DF22930E4
:1045F00002F0A6F902214DF22A3002F0A1F9F221CF
:104600004DF22B3002F09CF902214DF22C3002F0D9
:1046100097F9FE214DF22D3002F092F903214DF26F
:104620002E3002F08DF910214DF22F3002F088F972
:1046300003214DF2303002F083F933214DF2313055
:1046400002F07EF903214DF2323002F079F96D214A
:104650004DF2333002F074F900214FF4544002F06F
:104660006FF933214DF2014002F06AF900214DF259
:10467000024002F065F934214DF2034002F060F986
:1046800000214DF2044002F05BF93A214DF2054061
:1046900002F056F900214DF2064002F051F94A218C
:1046A0004DF2074002F04CF900214DF2084002F0B3
:1046B00047F95C214DF2094002F042F900214DF228
:1046C0000A4002F03DF981214DF20B4002F038F929
:1046D00000214DF20C4002F033F9A6214DF20D40BD
:1046E00002F02EF900214DF20E4002F029F9E521E9
:1046F0004DF20F4002F024F901214DF2104002F07A
:104700001FF913214DF2114002F01AF901214DF267
:10471000124002F015F954214DF2134002F010F945
:1047200001214DF2144002F00BF982214DF21540A7
:1047300002F006F901214DF2164002F001F9CA21FA
:104740004DF2174002F0FCF802214DF2184002F041
:10475000F7F800214DF2194002F0F2F802214DF273
:104760001A4002F0EDF801214DF21B4000E006E393
:1047700002F0E6F802214DF21C4002F0E1F834218B
:104780004DF21D4002F0DCF802214DF21E4002F015
:10479000D7F867214DF21F4002F0D2F802214DF206
:1047A000204002F0CDF884214DF2214002F0C8F8FB
:1047B00002214DF2224002F0C3F8A4214DF2234021
:1047C00002F0BEF802214DF2244002F0B9F8B72100
:1047D0004DF2254002F0B4F802214DF2264002F0DD
:1047E000AFF8CF214DF2274002F0AAF802214DF296
:1047F000284002F0A5F8DE214DF2294002F0A0F891
:1048000002214DF22A4002F09BF8F2214DF22B409A
:1048100002F096F802214DF22C4002F091F8FE21B0
:104820004DF22D4002F08CF803214DF22E4002F0A3
:1048300087F810214DF22F4002F082F803214DF24B
:10484000304002F07DF833214DF2314002F078F82B
:1048500003214DF2324002F073F86D214DF23340E6
:1048600002F06EF800214FF4554002F069F8332150
:104870004DF2015002F064F800214DF2025002F0B6
:104880005FF834214DF2035002F05AF800214DF246
:10489000045002F055F83A214DF2055002F050F85C
:1048A00000214DF2065002F04BF84A214DF207501C
:1048B00002F046F800214DF2085002F041F85C2168
:1048C0004DF2095002F03CF800214DF20A5002F07E
:1048D00037F881214DF20B5002F032F800214DF2F1
:1048E0000C5002F02DF8A6214DF20D5002F028F8E0
:1048F00000214DF20E5002F023F8E5214DF20F5049
:1049000002F01EF801214DF2105002F019F81321A7
:104910004DF2115002F014F801214DF2125002F044
:104920000FF854214DF2135002F00AF801214DF214
:10493000145002F005F882214DF2155002F000F8F3
:1049400001214DF2165001F0FBFFCA214DF2175024
:1049500001F0F6FF02214DF2185001F0F1FF0021A5
:104960004DF2195001F0ECFF02214DF21A5001F006
:10497000E7FF01214DF21B5001F0E2FF02214DF251
:104980001C5001F0DDFF34214DF21D5001F0D8FF25
:1049900002214DF21E5001F0D3FF67214DF21F504E
:1049A00001F0CEFF02214DF2205001F0C9FF842119
:1049B0004DF2215001F0C4FF02214DF2225001F0CE
:1049C000BFFFA4214DF2235001F0BAFF02214DF2A6
:1049D000245001F0B5FFB7214DF2255001F0B0FF92
:1049E00002214DF2265001F0ABFFCF214DF22750AE
:1049F00001F0A6FF02214DF2285001F0A1FFDE21B7
:104A00004DF2295001F09CFF02214DF22A5001F095
:104A100097FFF2214DF22B5001F092FF02214DF24F
:104A20002C5001F08DFFFE214DF22D5001F088FF3A
:104A300003214DF22E5001F083FF10214DF22F5033
:104A400001F07EFF03214DF2305001F079FF332158
:104A50004DF2315001F074FF03214DF2325001F05C
:104A60006FFF6D214DF2335001F06AFF00214FF4CA
:104A7000564001F065FF33214DF2016001F060FF07
:104A800000214DF2026001F05BFF34214DF2036022
:104A900001F056FF00214DF2046001F051FF3A2170
:104AA0004DF2056001F04CFF00214DF2066001F06F
:104AB00047FF4A214DF2076001F042FF00214DF20D
:104AC000086001F03DFF5C214DF2096001F038FF04
:104AD00000214DF20A6001F033FF81214DF20B609D
:104AE00001F02EFF00214DF20C6001F029FFA621FC
:104AF0004DF20D6001F024FF00214DF20E6001F037
:104B00001FFFE5214DF20F6001F01AFF01214DF268
:104B1000106001F015FF13214DF2116001F010FF3C
:104B200001214DF2126001F00BFF54214DF2136090
:104B300001F006FF01214DF2146001F001FF822116
:104B40004DF2156001F0FCFE01214DF2166001F0FE
:104B5000F7FECA214DF2176001F0F2FE02214DF27C
:104B6000186001F0EDFE00214DF2196001F0E8FE41
:104B700002214DF21A6001F0E3FE01214DF21B60AB
:104B800001F0DEFE02214DF21C6001F0D9FE34215D
:104B90004DF21D6001F0D4FE02214DF21E6001F0C5
:104BA000CFFE67214DF21F6001F0CAFE02214DF2D7
:104BB000206001F0C5FE84214DF2216001F0C0FEAD
:104BC00002214DF2226001F0BBFEA4214DF22360D0
:104BD00001F0B6FE02214DF2246001F0B1FEB721D2
:104BE0004DF2256001F0ACFE02214DF2266001F08D
:104BF000A7FECF214DF2276001F0A2FE02214DF267
:104C0000286001F09DFEDE214DF2296001F098FE42
:104C100002214DF22A6001F093FEF2214DF22B6049
:104C200001F08EFE02214DF22C6001F089FEFE2182
:104C30004DF22D6001F084FE03214DF22E6001F053
:104C40007FFE10214DF22F6001F07AFE03214DF21C
:104C5000306001F075FE33214DF2316001F070FEDD
:104C600003214DF2326001F06BFE6D214DF2336095
:104C700001F066FE55214FF4704001F061FEAA215B
:104C80004FF2010001F05CFE52214FF2020001F0F0
:104C900057FE08214FF2030001F052FE00214FF2AF
:104CA000040001F04DFECC214FF4314001F048FEEC
:104CB00000214BF2011001F043FE05214FF4364074
:104CC00001F03EFE70214FF4374001F039FE7021B3
:104CD0004BF2017001F034FE01214FF4384001F035
:104CE0002FFE03214BF6010001F02AFE03214BF6B3
:104CF000020001F025FE03214BF6030001F020FE27
:104D000002214FF43C4001F01BFE00214BF6014014
:104D100001F016FE00214BF6024001F011FED021F9
:104D20004FF4494001F00CFE02214CF6011001F055
:104D300007FE50214CF6021001F002FE50214CF605
:104D4000031001F0FDFD50214CF6041001F0F8FDB8
:104D500000214FF4545001F0F3FD55214FF46850F9
:104D600001F0EEFD4FF4885001F0DAFD782008F0F4
:104D7000BDFE4FF4245001F0D3FD01F05EB9FE48B2
:104D8000808849F2253188427ED147F6F001E5203E
:104D900001F0D6FD4FF48071012001F0D1FD4FF4F8
:104DA000E061022001F0CCFD41F23001032001F06E
:104DB000C7FD0021042001F0C3FD40F202210820BC
:104DC00001F0BEFD0021092001F0BAFD00210A20FA
:104DD00001F0B6FD00210C2001F0B2FD00210D20F4
:104DE00001F0AEFD00210F2001F0AAFD00211020EE
:104DF00001F0A6FD0721112001F0A2FD00211220E3
:104E000001F09EFD0021132001F09AFD00210720F2
:104E100001F096FD41F29061102001F091FD40F209
:104E20002721112001F08CFD9D21122001F088FD29
:104E30004FF4C851132001F083FD2521292001F0F2
:104E40007FFD0D212B2001F07BFD0721302001F09B
:104E500077FD40F20331312001F072FD0321322051
:104E600001F06EFD40F20621352001F069FD0821B8
:104E7000362001F065FD40F20641372001F060FD6B
:104E80004FF44171382000E057E001F059FD07214F
:104E9000392001F055FD40F202613C2001F050FD47
:104EA00008213D2001F04CFD0021502001F048FD7B
:104EB000EF21512001F044FD0021522001F040FD7E
:104EC00040F23F11532001F03BFD4FF42741602099
:104ED00001F036FD0121612001F032FD00216A2040
:104EE00001F02EFD0021802001F02AFD002181200B
:104EF00001F026FD0021822001F022FD0021832007
:104F000001F01EFD0021842001F01AFD0021852002
:104F100001F016FD1021902001F012FD4FF4C06148
:104F2000922001F00DFD40F23311072001F008FD41
:104F30002221002001F004FD1FE78F48808849F2FC
:104F4000283188427ED141F28F01EC2001F0F8FC3B
:104F500041F23421EF2001F0F3FC4FF48071012085
:104F600001F0EEFC4FF4E061022001F0E9FC41F2B7
:104F70003001032001F0E4FC0021042001F0E0FCFA
:104F800040F20221082001F0DBFC0021092001F0A1
:104F9000D7FC00210A2001F0D3FC01210C2001F0F4
:104FA000CFFC00210D2001F0CBFC00210F2001F0EF
:104FB000C7FC0021102001F0C3FC0721112001F0E3
:104FC000BFFC0021122001F0BBFC0021132001F0E6
:104FD000B7FC0121072001F0B3FC322008F068FD86
:104FE00041F29041102001F0ABFC40F2272111204A
:104FF00001F0A6FC322008F05BFD8A21122001F0AE
:105000009FFC322008F054FD4FF4D051132001F0E2
:1050100097FC0621292001F093FC0D212B2001F0A3
:105020008FFC322008F044FD0021202001F088FC94
:105030000021212001F084FC322008F039FD0021FC
:10504000302000E074E001F07BFC40F2046131208C
:1050500001F076FC40F20531322001F071FC0021B4
:10506000352001F06DFC40F60941362001F068FC66
:105070004FF40171372001F063FC40F20131382018
:1050800001F05EFC40F20771392001F059FC00216B
:105090003C2001F055FC40F60A213D2001F050FC77
:1050A000322008F005FD0021502001F049FCEF21DD
:1050B000512001F045FC0021522001F041FC40F25A
:1050C0003F11532001F03CFC4FF42741602001F0D8
:1050D00037FC0121612001F033FC00216A2001F03E
:1050E0002FFC0021802001F02BFC0021812001F009
:1050F00027FC0021822001F023FC0021832001F005
:105100001FFC0021842001F01BFC0021852001F000
:1051100017FC1021902001F013FC4FF4C061922085
:1051200001F00EFC40F23311072001F009FC24E6E7
:105130001148808849F2203188427DD100210846FB
:1051400001F0FEFB4FF48071012001F0F9FB4FF4F8
:10515000E061022001F0F4FB41F23001032001F094
:10516000EFFB0021042001F0EBFB40F202210820BC
:1051700001F0E6FB002101E0F4010020092001F02C
:10518000DFFB00210A2001F0DBFB01210C2001F0F4
:10519000D7FB00210D2001F0D3FB00210F2001F0EF
:1051A000CFFB322008F084FC40F20111072001F00F
:1051B000C7FB322008F07CFC4FF48651102001F030
:1051C000BFFB0721112001F0BBFB4FF488711220B7
:1051D00001F0B6FB4FF43061132001F0B1FB002168
:1051E000292001F0ADFB44F210012B2001F0A8FBB7
:1051F0000021502001F0A4FBEF21512001F0A0FB81
:105200000021522001F09CFB40F23F11532001F09D
:1052100097FB4FF41C51602001F092FB01216120AB
:1052200001F08EFB00216A2001F08AFB0021802022
:1052300001F086FB002100E031E0812001F080FBDD
:105240000021822001F07CFB0021832001F078FB0B
:105250000021842001F074FB0021852001F070FB07
:105260001021902001F06CFB0021922001F068FBDE
:105270000121932001F064FB4FF48871952001F027
:105280005FFB0021972001F05BFB0021982001F0DB
:1052900057FB40F27311072001F052FB6DE5FE4809
:1052A000808849F2313188427DD141F21401E720F2
:1052B00001F046FB4FF48071012001F041FB4FF4F7
:1052C0000071022001F03CFB41F23801032001F0A3
:1052D00037FB40F20221082001F032FB00210920B7
:1052E00001F02EFB00210A2001F02AFB00210C20F6
:1052F00001F026FB00210D2001F022FB00210F20F0
:1053000001F01EFB0021102001F01AFB07211120E3
:1053100001F016FB0021122001F012FB00211320E6
:1053200001F00EFBC82008F0C3FB41F29061102091
:1053300001F006FB40F22721112001F001FB322091
:1053400008F0B6FB0C21122001F0FAFA322008F026
:10535000AFFB4FF40061132001F0F2FA1121292074
:1053600001F0EEFA0B212B2001F0EAFA322008F0CE
:105370009FFB0021202001F0E3FA40F23F112120A1
:1053800001F0DEFA0021302001F0DAFA4FF48371E7
:10539000312001F0D5FA0021322001F0D1FA4FF48A
:1053A0000171352000E064E001F0CAFA41F20A61BF
:1053B000362001F0C5FA40F20771372001F0C0FA3B
:1053C0004FF48371382001F0BBFA40F207713920A5
:1053D00001F0B6FA40F202413C2001F0B1FA40F689
:1053E0000F413D2001F0ACFA0021502001F0A8FA55
:1053F000EF21512001F0A4FA0021522001F0A0FA7F
:1054000040F23F11532001F09BFA4FF41C516020F1
:1054100001F096FA0121612001F092FA00216A2040
:1054200001F08EFA0021802001F08AFA002181200B
:1054300001F086FA0021822001F082FA0021832007
:1054400001F07EFA0021842001F07AFA0021852003
:1054500001F076FA1021902001F072FA4FF4C06149
:10546000922001F06DFA40F23311072001F068FA42
:1054700083E48948808845F2084188427ED14FF410
:105480008071012001F05CFA4FF4E061022001F02C
:1054900057FA41F23001032001F052FA00210420B2
:1054A00001F04EFA40F20721082001F049FA0021EC
:1054B000092001F045FA00210A2001F041FA0021FB
:1054C0000C2001F03DFA00210D2001F039FA0021F5
:1054D0000F2001F035FA142008F0EAFA41F2B06129
:1054E000102001F02DFA0121112001F029FA0121EB
:1054F000172001F025FA4FF49C71122001F020FAD8
:105500004FF40061132001F01BFA0921292001F05A
:1055100017FA09212A2001F013FA0021A42001F032
:105520000FFA0021502001F00BFAEF21512001F079
:1055300007FA0021522001F003FA40F23F115320F4
:1055400001F0FEF94FF41C51602001F0F9F901213E
:10555000612001F0F5F900216A2001F0F1F9002144
:10556000802001F0EDF90021812001F0E9F900210E
:10557000822001F0E5F90021832000E023E001F022
:10558000DFF90021842001F0DBF90021852001F002
:10559000D7F91321902001F0D3F90021922001F0D6
:1055A000CFF90321932001F0CBF94FF488719520B6
:1055B00001F0C6F940F27311072001F0C1F9322061
:1055C00008F076FAB8E43448808841F20551884200
:1055D0007ED10021072001F0B3F9322008F068FAEB
:1055E0004FF48E71122001F0ABF90121A42001F0DB
:1055F000A7F90F21082001F0A3F908210A2001F0E2
:105600009FF908210D2001F09BF940F2077130202D
:1056100001F096F90721312001F092F940F203617F
:10562000322001F08DF94FF4E061332001F088F968
:1056300040F20221342001F083F90221352001F0EB
:105640007FF941F60F71362001F07AF940F20771C7
:10565000372001F075F90021382001F071F900219F
:10566000392001F06DF940F207713A2001F068F934
:1056700000213B2001F064F907213C2001F060F992
:1056800000213D2001F05CF9322008F011FA0121DF
:10569000072001F055F901E0F40100200121172055
:1056A00001F04EF9322008F003FA4FF4BD511020FA
:1056B00001F046F940F21721112001F041F94FF4B1
:1056C0008F71122001F03CF94FF47061132000E05B
:1056D00097E001F035F900212A2001F031F90A2183
:1056E000292001F02DF94FF49F71122001F028F9C3
:1056F0000021502001F024F9EF21512001F020F980
:105700000021522001F01CF940F23F11532001F01A
:1057100017F94FF41C51602001F012F901216120AA
:1057200001F00EF900216A2001F00AF90021802021
:1057300001F006F90021812001F002F90021822008
:1057400001F0FEF80021832001F0FAF80021842006
:1057500001F0F6F80021852001F0F2F813219020E5
:1057600001F0EEF84FF44071922001F0E9F80521C4
:10577000932001F0E5F80021952001F0E1F80021E7
:10578000972001F0DDF80021982001F0D9F84FF4BE
:105790008071012001F0D4F84FF4E061022001F0A3
:1057A000CFF841F23801032001F0CAF800210420AB
:1057B00001F0C6F800210C2001F0C2F800210F20F2
:1057C00001F0BEF80021202001F0BAF800212120CC
:1057D00001F0B6F82121072001F0B2F8142008F0FA
:1057E00067F96121072001F0ABF8142008F060F997
:1057F00040F27311072001F0A3F8142008F058F9C3
:1058000095E4FE4880884BF2055188427ED1002104
:10581000084601F095F80021084601F091F80021B2
:10582000084601F08DF80021084601F089F80121B1
:10583000A42001F085F8142008F03AF94FF41C5127
:10584000602001F07DF840F20221082001F078F894
:105850004FF40571302001F073F843F215713120D7
:1058600001F06EF840F20461322001F069F840F670
:105870001661332001F064F842F21121342001F066
:105880005FF84FF4A851352001F05AF848F207515B
:10589000362001F055F841F20741372001F050F869
:1058A00041F20341382001F04BF82021392001F06A
:1058B00047F81A21902001F043F80021102001F050
:1058C0003FF80721112001F03BF80021122001F0E0
:1058D00037F80021132001F033F8142008F0E8F81D
:1058E0004FF4E661102001F02BF840F2371111203F
:1058F00001F026F8142008F0DBF84FF4DC711220D8
:1059000001F01EF8142008F0D3F800E083E04FF413
:105910007061132001F014F880212A2001F010F8A2
:105920004821292001F00CF8142008F0C1F84FF4A8
:105930008071012001F004F84FF4E061022000F0D2
:10594000FFFF41F23801032000F0FAFF40F202218C
:10595000082000F0F5FF00210A2000F0F1FF0021EF
:105960000C2000F0EDFF00210D2000F0E9FF3021B8
:105970000E2000F0E5FF0021502000F0E1FFEF21B4
:10598000512000F0DDFF0021522000F0D9FF40F24D
:105990003F11532000F0D4FF4FF41C51602000F061
:1059A000CFFF0121612000F0CBFF00216A2000F031
:1059B000C7FF1121902000F0C3FF4FF4C061922077
:1059C00000F0BEFF40F20241932000F0B9FF022137
:1059D000942000F0B5FF142008F06AF80121072098
:1059E00000F0AEFF142008F063F86121072000F0FA
:1059F000A7FF40F27311072000F0A2FF0021202032
:105A000000F09EFF0021212000F09AFF22210020BB
:105A100000F096FF11E3794880884CF205518842E6
:105A20007ED10021084600F08BFF0021084600F0DF
:105A300087FF142008F03CF80021084600F080FFA2
:105A40000021084600F07CFF0021084600F078FFA6
:105A50000021084600F074FF0121A42000F070FF2F
:105A6000142008F025F84FF41C51602000F068FF66
:105A700040F60601082000F063FF40F20371302079
:105A800000F05EFF0121312000F05AFF0421322096
:105A900000F056FF4FF48171332000F051FF4FF4B6
:105AA0004071342000F04CFF40F20311352000F02B
:105AB00047FF1F21362000F043FF40F203713720DB
:105AC00000F03EFF0121382000F03AFF0421392088
:105AD00000F036FF1521902000F032FF4FF4826174
