:020000040800F2
:10000000D805002045010008490100084B010008FF
:100010004D0100084F0100085101000800000000D8
:100020000000000000000000000000005301000874
:1000300055010008000000005701000859010008A0
:100040005B0100085B0100085B0100082109000852
:100050005B0100085B0100085B0100085B01000810
:100060005B0100085B0100085B0100085B01000800
:100070005B0100085B0100085B0100085B010008F0
:100080005B0100085B0100085B0100085B010008E0
:100090005B0100085B0100085B0100085B010008D0
:1000A0005B0100085B0100085B0100085B010008C0
:1000B0005B0100085B0100085B0100085B010008B0
:1000C0005B0100085B0100085B0100085B010008A0
:1000D0005B010008E50A00085B0100085B010008FD
:1000E0005B0100085B0100085B0100085B01000880
:1000F0005B0100085B0100085B0100085B01000870
:100100005B0100086D0900085B0100085B01000845
:100110005B0100085B0100085B0100085B0100084F
:100120005B0100085B0100085B0100085B0100083F
:10013000DFF80CD000F010FB00480047411C00081D
:10014000D805002005480047FEE7FEE7FEE7FEE78A
:10015000FEE7FEE7FEE7FEE7FEE7FEE73101000807
:10016000421C10F8011B0029FBD1801A704703467E
:1001700011F8012B00F8012B002AF9D1184670471D
:100180002DE9FE4F804681EA0300C00F0C46009027
:1001900021F0004123F00045B8EB0200A94105D24F
:1001A0004046214690461C460B46024623F000403E
:1001B000104347D0270DC7F30A00C3F30A5102903A
:1001C000401A019040286BDAC3F3130040F4801BFF
:1001D0000098924620B10023D2EB030A63EB0B0B8D
:1001E00001985946C0F14002504600F0BFF906465A
:1001F0000D4650465946019A00F0D7F910EB080019
:100200006141002487EA115284EAE7731A4340D01F
:10021000009A62B3019A012A4FEA075215DC001BCB
:1002200061EB02014FF0004202EA0752CDE90042C1
:10023000001C41F5801132462B4600F0D7F903B07F
:10024000BDE8F08F40462146F9E7001B61EB020153
:10025000001C41F5801300185B412018A2F500171F
:1002600047EB030140EAD570B6196D4111E06D0806
:100270004FEA360645EAC0754FEA0752001B61EBAC
:100280000201001C41F5801149084FEA30000019B5
:10029000514132462B4603B0BDE8F04F00F097B90C
:1002A0000098012240000023D0EB020263EBE073D0
:1002B000009821464FEAE074B8EB000061EB0401BE
:1002C000E9E783F000435BE781F0004158E72DE95F
:1002D000FE4F81EA030404F0004421F00041009441
:1002E0004FF0000B23F0004350EA01045ED052EAC5
:1002F00003045BD0C3F30A54C1F30A552C44A4F29F
:10030000F3340194A0FB0254C1F3130141F48011B2
:10031000C3F3130343F4801301FB024400FB034EB9
:10032000840A970A44EA815447EA8357A4FB076882
:1003300002958D0A05FB07854FEA932C04FB0C54AC
:100340002705029D4FEA065847EA1637B5EB080520
:100350006EEB070C870E920E47EA811742EA831272
:10036000A7FB0201B6EB0B0164EB00042B0D43EA83
:100370000C335E1844EB1C50DA465146E7FB020191
:10038000C5F313044FEA0B3343EA14534FEA043224
:10039000019C43EA0603A4F10C040294009CCDE9FD
:1003A00000B400F023F903B0BDE8F08F002001464F
:1003B000F9E72DE9F04D81EA030404F0004B21F048
:1003C000004514464FF0000A23F0004150EA0502B0
:1003D00020D054EA01021DD0C5F30A570246C5F3E6
:1003E0001303C1F31300C1F30A5640F4801543F41C
:1003F0008013A7EB0608101BD64608F2FD3873EBF6
:10040000050002D308F1010801E092185B41B8F140
:10041000000F03DA00200146BDE8F08D00204FF404
:100420008011064684460EE0171B73EB050705D3C3
:10043000121B63EB050306434CEA010C49084FEA23
:10044000300092185B4150EA0107EDD152EA0300F7
:1004500012D082EA040083EA0501084305D0101B8C
:10046000AB4106D20122002306E000224FF00043F8
:1004700002E06FF0010253101AEB06004CEB08513A
:1004800010EB0A0041EB0B01BDE8F04D00F09FB806
:100490000EB5C10F80EAE0700844CA07002140F29F
:1004A00033438DE80E000A460B4600F09FF803B078
:1004B00000BD0EB540F2334102910021CDE900119B
:1004C0000A460B4600F092F803B000BD70B5C1F3C8
:1004D0000A5201F000450024C1F3130140F2FF333A
:1004E00041F480119A4201DA002070BD40F233439A
:1004F0009A42A2F2334203DC524200F046F800E096
:1005000090402C43F1D0404270BD000030B5041E35
:1005100071F1000404DB4FF00044404264EB010140
:10052000141E73F1000405DB1C464FF000435242D9
:1005300063EB04038B4208BF824230BD30B5041E1A
:1005400071F1000404DB4FF00044404264EB010110
:10055000141E73F1000405DB1C464FF000435242A9
:1005600063EB0403994208BF904230BD202A04DBAC
:10057000203A00FA02F1002070479140C2F12003B6
:1005800020FA03F3194390407047202A04DB203AF5
:1005900021FA02F00021704721FA02F3D040C2F1A3
:1005A00020029140084319467047202A06DBCB17EA
:1005B000203A41FA02F043EAE07306E041FA02F31E
:1005C000D040C2F12002914008431946704710B54F
:1005D000141E73F1000408DA401C41F10001921866
:1005E0005B411A4301D120F0010010BD2DE9F04D0F
:1005F00092469B4611B1B1FA81F202E0B0FA80F264
:1006000020329046FFF7B2FF04460F4640EA0A0048
:1006100041EA0B0153465A46084313D0114653EAA8
:10062000010019D0C8F140025046FFF7AEFF054661
:100630000E46504659464246FFF798FF084305D0FC
:10064000012004E020463946BDE8F08D0020054336
:1006500046EAE0762C4337430A986305E40AA0EBA8
:1006600008000022FD0A44EA47540A3002D500205F
:100670000146E9E7010510196941DDE9084500195E
:100680006941BDE8F04DA2E770B521F00043034396
:100690000CD0C1F30A550024D5EB040564EB040328
:1006A000D617AD1AB34102DB0020014670BD2018F9
:1006B00041EB025170BD2DE9F04D00231A461B1A83
:1006C0008A4103DB00200146BDE8F08DC1F30A52E8
:1006D000C1F3130141F480154FF0000BD10702D193
:1006E00000186D41521E0027044640F2FF113846A3
:1006F00001EB620A3E468046024600204FF480111C
:10070000FFF743FFC2197141BB1846EB0100B4EB80
:10071000030C75EB000C04D3E41A65EB00051746D7
:100720000E46241908F101006D4180463428E3DDAE
:10073000F91946EB0600091BA84103D24FF0FF321E
:10074000134601E0002213461BEB070046EB0A515B
:10075000BDE8F04DFFF73BBF064C074D06E0E068F3
:1007600040F0010394E8070098471034AC42F6D3F8
:10077000FFF7E2FCE830000808310008024605E017
:100780001348416B01F0450000B100E0F8E700BFFD
:1007900001F0040020B104200D4B98630320704742
:1007A00001F0010018B10120094B9863F7E70848F0
:1007B0000069904201D01020F1E740F2FF50044B55
:1007C00098631846406908231840C0B2E7E7000064
:1007D000008001402DE9FF5F82B014461D46DDE92F
:1007E00010AB22462B46029801F00CF806460F4645
:1007F00052465B4620462946FFF763FD4FF02042F4
:10080000224BCDE90001FFF781FE27D222462B467D
:1008100050465946FFF755FD4FF020421B4BCDE99E
:100820000001FFF773FE19D2194A1A4B30463946B8
:10083000FFF76CFE12D287F00040154A154BCDE948
:10084000006030460199FFF761FE07D2012012498E
:1008500008702046294606B0BDE8F09F22462B4688
:10086000029800F05DFF8046894642464B4630467E
:100870003946FFF79EFD22462B46CDE90001FFF7E2
:1008800023FD04460D4620462946E4E7F7C6B03E60
:1008900011EA2D819997713D300000202DE9FC5F10
:1008A000834614461D46DDE90C894FF0000A0020FE
:1008B000194908701949087026462F4622462B46CA
:1008C0005846CDE90089FFF785FF04460D46B0463E
:1008D000B94600BF13E01048007860B926462F469D
:1008E00032462B465846CDE90089FFF773FF044690
:1008F0000D46B046B9460AF1010000F0FF0ABAF110
:10090000640FE8DB0448007810B90120034908703F
:1009100020462946BDE8FC9F300000202000002032
:1009200000B51148008800F0010008B102F084F918
:100930000D48008800F0020038B10B48008820F014
:1009400002000949088002F077F90748008840F65C
:10095000FA7108400449088000BF0348008800F08D
:1009600020000028F9D000BD0428004000B500F0A8
:1009700015F800BD10B50346074CA260E0686FF3A0
:100980000A0003F03F04204340EA811000BF40F416
:100990008060014CE06010BD0080014000B54D4812
:1009A000406B00F4807020B34B48007801280AD1D6
:1009B000002201210C20FFF7DDFF0C20FFF7DEFEF7
:1009C0004649087002E00020444908704148806BA5
:1009D00040F480703F4988630846C06B4CF23A315E
:1009E00088433C49C86301203D4908703B48007872
:1009F00000BD3848406B00F0020080B13548806B84
:100A000040F00200334988630846C06B4CF23A312B
:100A100088433049C863022030490870E8E72D4810
:100A2000406B00F0080080B12A48806B40F008005D
:100A3000284988630846C06B4CF23A3188432549FF
:100A4000C863042025490870D2E72248406B00F0B3
:100A5000200080B11F48806B40F020001D49886352
:100A60000846C06B4CF23A3188431A49C8630620E5
:100A70001A490870BCE71748406B00F0100080B1BD
:100A80001448806B40F01000124988630846C06B20
:100A90004CF23A3188430F49C86305200F4908706A
:100AA000A6E70C48406B00F4007080B10948806BE9
:100AB00040F40070074988630846C06B4CF23A3135
:100AC00088430449C86307200449087090E7002060
:100AD0008EE700000080014011000020120000207D
:100AE000130000201D49098801F0200111B31B49A2
:100AF000091D0988C8B21A49098801F40041C9B919
:100B00001749098801F4804161B10A2803D0002106
:100B1000134A118020E01249098841F40041104A2B
:100B2000118019E00D2806D10D49098841F4804152
:100B30000B4A118010E00A490988C1F30D01094AE6
:100B4000505407490988491C054A118011460988F3
:100B5000C72901DD002111807047000000380140E5
:100B60000400002038000020490050EAC12018BFCE
:100B700004204A0D18BF40F0010040F2FF72B2EBB2
:100B8000515F08BF40F00200012808BF05207047F0
:100B90002DE9F74F144694B00021C4E902111599CC
:100BA000079121F00045C9498D4206DC1599C4E939
:100BB000000117B00020BDE8F08FC549DFF814A38D
:100BC000A9423CDD0799C44E0029C44FC44A159977
:100BD000534619DDFFF775FB554506D0C14AC24B98
:100BE000FFF76FFBC4E900010AE04FF0D352BE4BA0
:100BF000FFF767FB32463B46FFF763FBC4E90001A2
:100C000017B00120BDE8F08FFFF7BAFA554506D0BE
:100C1000B44AB54BFFF7B4FAC4E900010AE04FF05B
:100C2000D352B14BFFF7ACFA32463B46FFF7A8FA76
:100C3000C4E9000117B04FF0FF30BDE8F08FAB49B9
:100C4000A942159978DB21F0004183468846A84ADD
:100C5000A84BFFF73CFB0022A74BFFF791FAFFF7E9
:100C600035FC0990FFF714FC06460F469C4A534694
:100C7000FFF72DFB43465A46FFF726FB80468A4680
:100C8000984A994B30463946FFF721FB2A0D01253A
:100C90000B9242465346FFF717FB032DC4E90001B0
:100CA00039D00B98C1F30A51401A05EB451111399F
:100CB000814230DA9148C346784400EB0510CDF804
:100CC0000CA00C90D0E9002330463946FFF7FFFA1C
:100CD00002460B460491069058460399FFF7F1FA35
:100CE00080468A4602460B4658460399FFF7E9FAC2
:100CF000049B069AFFF7E5FA83460C980391394660
:100D0000D0E902233046FFF7E2FA5A46039BFFF789
:100D1000D8FA6D1CBDE707980028A2BF099817B044
:100D2000BDE8F08F616881F000416160099817B0FB
:100D30004042BDE8F08FFFE784461598C1F31301E8
:100D4000C0F30A50A0F2F5304FEA601800F01F0619
:100D5000C6F12000139000200690079041F4801EF9
:100D600005206D4676B1664A08EB00017A4452F8D8
:100D7000213002EB8101B3404A68139922FA01F154
:100D8000194305E05F4908EB0002794451F822104D
:100D9000A1FB0E27A1FB0C131A449A4234BF012376
:100DA000002303EB070A05EB8003D3E901B70F44E7
:100DB0008F4234BF0121002193448B4411B19345EC
:100DC00002D903E0934501D2012100E00021C3E9EB
:100DD00001B7514445F82010011EA0F10100C1DC0B
:100DE0000298059F00F10050800F12900298DDE9F3
:100DF00003568000FFF74CFB834628460D91FFF712
:100E000058FB6FF01D02FFF73FFCCDE90E013046A5
:100E1000FFF74FFB6FF03D02FFF736FC80468A4636
:100E20003846FFF746FB6FF05D02FFF72DFC0746E3
:100E3000424653461191FFF7A3F9DDE90E23FFF770
:100E40009FF95A460D9BFFF79BF900250E465A461F
:100E500028460D9BFFF735FADDE90E23FFF731FA3F
:100E600042465346FFF72DFA3A46119BFFF72CFAFC
:100E7000DFF898A0244A5346FFF729FA0746884628
:100E8000234A244B31462846FFF721FA3A46434687
:100E9000FFF776F9074688464FF0A8425346314699
:100EA0002846FFF714FA3A464346FFF769F9159AC0
:100EB00012F0004F04D0129A81F000415242129277
:100EC000C4E90001129817B0BDE8F08FFB21E93F9B
:100ED0007CD90240FB21F93F7370032E8A19A33B92
:100EE000000040543163621A61B4D03DFB213941A6
:100EF00083C8C96D305FE43F0000E03FDC220000A2
:100F0000582200003A220000182D4454FB21F93DDC
:100F10003326A611460B113C2DE9FF4D21F0004868
:100F200007460C46B8F1795F08DAFFF7CFFA0028D8
:100F300001BF0020324904B0BDE8F08D3A46234697
:100F400010461946FFF7C3F9054602462D480E46DE
:100F50000B460621784400F05DF82A463346FFF739
:100F6000B6F9DDE9022382468B4638462146FFF773
:100F7000AEF904460F4652465B4628463146FFF717
:100F8000A6F922463B46FFF79CF907468A464FF0F2
:100F9000FF3228463146FFF777FB1B4A90450ADAB5
:100FA0003A465346FFF78DF904B00022BDE8F04DF4
:100FB000134BFFF789B9154A4245A8BFA8F500159C
:100FC0004FF00004B8BF124D22462B46FFF779F9C7
:100FD0000646884622462B4600200949FFF771F94C
:100FE00004460D463A46534630464146FFF769F9F6
:100FF00004B022462B46BDE8F04DFFF765B900006E
:101000000000F03F082000003333D33F0000E93FE9
:101010000000D23F2DE9F0414F1E00EBC70104460E
:10102000D1E9000115461E4637F006020DD02A46CA
:101030003346FFF74CF97F1E04EBC703D3E90023C7
:10104000FFF79EF837F00602F1D1022F25D0042FCA
:1010500013D0062F18BFBDE8F0812A463346FFF7AC
:1010600036F9D4E90A23FFF78BF82A463346FFF70F
:101070002EF9D4E90823FFF783F82A463346FFF711
:1010800026F9D4E90623FFF77BF82A463346FFF713
:101090001EF9D4E90423FFF773F82A463346FFF715
:1010A00016F9D4E90223FFF76BF82A463346FFF717
:1010B0000EF9D4E90023BDE8F041FFF761B8000064
:1010C0002DE9FF4D054621F0004084B00C46B0F1FB
:1010D000795F0BDA2846FFF747FD042808BF00F0C8
:1010E000BDF9284608B02146BDE8F08D2A460B46DA
:1010F0001046FFF7ECF806460F462A462346FFF750
:10110000E6F8804626488A4632463B460521784422
:10111000FFF780FF83461098029160B3214A224B6B
:1011200040465146FFF7D3F8CDE900015A46404604
:101130005146029BFFF7CBF882468846DDE906015F
:101140004FF0FF32FFF7A0FA52464346FFF7B9F8D7
:1011500032463B46FFF7BBF8DDE90623FFF7B1F85F
:10116000DDE90023FFF7ADF808B02A462346BDE8C5
:10117000F04DFFF7A9B80B465A4630463946FFF7FF
:10118000A6F8084A084BFEF7FBFF42465346FFF716
:101190009EF808B02A462346BDE8F04DFEF7F0BFA2
:1011A0004E1F0000495555555555C5BF2DE9F04D09
:1011B00004468CB0904821F00047164698460D46EC
:1011C0000991874206DA20462946FFF77FF9002871
:1011D00000F0AE808948B8421CDC09980028BCBFEA
:1011E00085F0004588F00048854A864B2046294610
:1011F000FFF76AF804460D46324643468248834963
:10120000FFF75FF822462B46FEF7BAFF002604469A
:101210000D46B04622462B4610461946FFF757F8B2
:101220008B46824602460B46FFF751F8024608906D
:1012300077480B46009106217844FFF7EBFECDE995
:101240000310744806217844009B089AFFF7E2FED9
:1012500052465B46FFF73BF8CDE9051052465B4628
:1012600020462946FFF733F807910090DDE9031087
:10127000DDE90532FEF784FF079B009AFFF727F8A8
:1012800032464346FEF77CFF52465B46FFF71FF8A7
:1012900032464346FEF774FF80460E465E4A5F4B79
:1012A00007990098FFF713F842463346FEF768FFA8
:1012B00082468B4622462B46FEF762FF80464F4809
:1012C0000E46B84214985BDCFFF7E2F80746424648
:1012D00033460591FEF754FFCDE9011042463346EF
:1012E00010461946FEF7F3FFDDE90132FFF761F81A
:1012F00052465B46FEF7E5FF22462B46FEF7E4FF2B
:101300000122FFF7C1F93A46059BFEF7DDFF0446CF
:101310000D460998022101EAA070C0F10100FFF713
:10132000B7F80CB022462B46BDE8F04DFEF7CFBF14
:101330001498401C384320430BD01498012812D035
:101340000CB022462B46BDE8F04D00203449FFF793
:1013500030B80CB025F000432246BDE8F04D002027
:101360003049FFF726B820462946FFF7FDFB042841
:1013700008BF00F073F820460CB02946BDE8F08D98
:10138000012802BF40460CB0BDE8F08D00270B4697
:101390003A4620462946FEF797FF52465B46FEF73F
:1013A00093FF04460D464246334600201C49FFF792
:1013B00000F883463A46884633461046FEF787FFD4
:1013C0000022184BFEF7DCFE06468A4622462B46D4
:1013D00038464146FEF77BFF32465346FEF7D0FEC5
:1013E0005A464346FEF773FF0CB03A464346BDE803
:1013F000F04DFEF7C5BE00000000303E2894E53FEA
:10140000182D4454FB21E93F075C143326A6813C88
:101410004C1E00006E1E0000635555555555D53FB6
:101420000000F0BF0000F03F0022134610460149C3
:10143000FEF7BFBF0000F03F0122FFF725B9FEF71E
:101440009FBE0022134610461146FEF7B2BF40F27F
:10145000013200204FF0E041FFF716B9024A0020A8
:101460001107FFF711B9000001FDFFFF02E008C8F6
:10147000121F08C1002AFAD170477047002001E00E
:1014800001C1121F002AFBD170470000014908600A
:1014900070470000340000202DE9F05F06460F463B
:1014A0009046994642464B4630463946FEF709FF7C
:1014B00004460D460A4A0B4B20462946FFF726F8FC
:1014C0000BD285F00041A246054A064B5046FFF775
:1014D0001DF802D20020BDE8F09F0A98FBE700004B
:1014E0008DEDB5A0F7C6B03E2DE9FF5F8046894679
:1014F0009246DDE90E6700210C460D46BAF1630FF6
:101500006FD011DCBAF12B0F20D006DCBAF1250F19
:101510004AD0BAF12A0F21D12AE0BAF12D0F1ED0FC
:10152000BAF12F0FF7D12CE0BAF1730F7DD006DCA2
:10153000BAF16C0F5FD0BAF1700FECD152E0BAF192
:10154000740F73D0BAF1780FE5D190E032463B4684
:1015500040464946FEF714FE04460D468AE03246F0
:101560003B4640464946FEF7ACFE04460D4681E048
:1015700032463B4640464946FEF7A9FE04460D4624
:1015800078E00022134630463946FEF7BFFF02D10D
:1015900001203B49087032463B4640464946FEF72B
:1015A00008FF04460D4665E00022134630463946E2
:1015B000FEF7ACFF02D10120314908704046494690
:1015C000FEF784FF834630463946FEF77FFF9BFBDC
:1015D000F0F100FB11B00390FEF75AFF04460D46F0
:1015E00048E02FE032463B464046494600F050FB7B
:1015F00004460D463EE00022134640464946FEF7AB
:1016000085FF06D90022134630463946FEF77EFF95
:1016100002D801201A4908704046494600F062F994
:10162000CDE902013046394601E012E018E000F051
:1016300059F9CDE90001DDE90223FEF7BAFE0446BF
:101640000D4617E03046394600F01CF804460D46BA
:1016500010E03046394601F023F804460D4609E013
:101660003046394601F0FCF804460D4602E0DDE95B
:10167000104500BF00BF2046294604B0BDE8F09FDA
:101680002000002000B5244B21F0004287B09A4290
:10169000DCBF0022134629DD204B9A4208D140B915
:1016A0004FF00100FFF7F2FEFFF7CBFE07B000BDE1
:1016B00003DBFFF7C1FE07B000BD02AAFFF768FA1F
:1016C00010F0030104BF0DF1080C9CE80F000DD0D1
:1016D000012001290ED0022914D00DF1080C009030
:1016E0009CE80F00FFF7ECFC07B000BDFFF714FC0F
:1016F00007B000BD0DF1080C00909CE80F00FFF74B
:10170000DFFC05E00DF1080C9CE80F00FFF704FC7E
:1017100007B081F0004100BDFB21E93F0000F07FF0
:101720002DE9FF5F14461D46114A124B20462946FB
:10173000FEF726FD064632460B46009800F062F89A
:101740008046894622462B46009800F05BF8824688
:101750008B4652465B4640464946FEF7B2FD06467A
:10176000034A044BFEF725FE04B0BDE8F09F0000DD
:10177000BBBDD7D9DF7CDB3D2DE9F04F85B00446FA
:1017800015461E4600BF00BF00BF0027204600F0E0
:101790004DF80746B81C88B9002004902046FEF793
:1017A000DFFC049000210498401E21542A46334651
:1017B000601CFFF7E1FF05B0BDE8F08F781C18B999
:1017C000204600F0E3FFF6E7E05D04900020E055DE
:1017D0002A4633462046FFF7CFFF82468B46E11963
:1017E000481C2A463346FFF7C7FF80468946CDE9A5
:1017F0000089CDE9025650465946049AFFF774FE17
:10180000D9E7000070B5064614461D463146064825
:10181000FEF7ADFC22462B460348FFF7ADFF04461A
:101820000D462046294670BD700100202DE9F04785
:1018300005464FF0FF37B946B8460026B24628465F
:10184000FEF78EFC441E24E0285D292802D1761C78
:101850004FF0010A285D282800D1761EBEB9285D08
:101860002D280CD1601E285C292803D0601E285C1E
:10187000302803DB601E285C392800DD08E0285D85
:1018800000F0E5F98046C84501DD2746C14600BFA6
:10189000641E002CD8DA781C20B9BAF1010F01D1EE
:1018A0006FF001073846BDE8F08701460022CB17EC
:1018B00001EB93739B10A1EB830383B9642091FB2D
:1018C000F0F300FB131008B1012209E04FF4C870D7
:1018D00091FBF0F300FB131010B9012200E000228D
:1018E000D0B270472DE9F04DC84A002490B0914223
:1018F00005DA21F00043934201D805D120B110B0A0
:10190000BDE8F04DFFF798BDB1F5801F1BDA53EA33
:10191000000209D0002911DA0120FFF7B7FD10B04D
:10192000BDE8F04DFFF78DBD0220FFF7AFFDFFF7DB
:101930007BFD10B081F00041BDE8F08D6FF0350403
:101940003622FEF7A1FE04EB2152C1F31308B04981
:10195000A2F2FF33414401F4801282F07F6103EB75
:10196000225281F04051009241EA08010022A94B25
:10197000FEF7A7FC044608F10200A74EC0F31300CF
:101980000D467E44032867D2D6E900232046FEF7A1
:10199000BDFD1ED10098002802BFD6E9000110B09D
:1019A000BDE8F08DFEF774FD07460C469B4A9C4B44
:1019B000FEF78DFC06460D469A4A9B4B384621465B
:1019C000FEF785FC10B032462B46BDE8F04DFEF721
:1019D000D7BB4FF05532954B20462946FEF777FC92
:1019E0000022934BFEF770FC06460F4622462B461C
:1019F00010461946FEF76BFC32463B46FEF767FC85
:101A0000064600980F46F0B1FEF742FD80468A4632
:101A1000824A834BFEF75BFC32463B46FEF754FCA2
:101A200022462B46FEF74DFC05460C467D4A7E4B72
:101A300040465146FEF74BFC10B02A462346BDE80F
:101A4000F04DFEF73EBC0B4610B03246204629460C
:101A5000BDE8F04DFEF735BC00224FF08043204634
:101A6000FEF78EFB02460B4620462946FEF7A1FCF8
:101A700006460F460098FEF70BFDCDE904013246FD
:101A80003B4610463946FEF722FC0C9069480C9AFA
:101A90004044019009910B461046FEF718FC82461F
:101AA000024665488B46C8F151080B4608F5D72811
:101AB00003217844FFF7AEFA52465B46FEF707FC77
:101AC0000A905E480D9152465B4604217844FFF728
:101AD000A1FA099B0C9AFEF7FAFB844601980D9B2C
:101AE00040EA080860460A9AFEF74AFB83460891D6
:101AF000B8F1000F4EDD4FF0FF3220462946FEF7C9
:101B0000C3FD22462B46FEF7E2FB804600988A463C
:101B100060B3DDE90401414A414BFEF7D8FB09916E
:101B200000905A4640465146089BFEF729FB324634
:101B30003B46FEF7CCFB099B009AFEF721FB424691
:101B40005346FEF7C1FB22462B46FEF7BAFB04467E
:101B50000D46DDE90401334A334BFEF7B8FB10B004
:101B600022462B46BDE8F04DFEF7ABBB5A46404639
:101B7000089BFEF705FB32463B46FEF7A8FB4246B4
:101B80005346FEF7A1FB10B022462B46BDE8F04DB0
:101B9000FEF79ABB009840B3DDE904011F4A204BD1
:101BA000FEF795FB80468A465A4620462946089B02
:101BB000FEF787FB32463B46FEF789FB424653461B
:101BC000FEF77FFB22462B46FEF77BFB04460D46C5
:101BD000DDE90401134A144BFEF779FB10B02246ED
:101BE0002B46BDE8F04DFEF76CBB0B465A4620462F
:101BF0002946FEF766FB32463B46FEF768FB10B00F
:101C000022462B46BDE8F04DFEF75EBB0000F07F9C
:101C1000645F09000000F03F0A160000763C793549
:101C2000EF39EA3D0000E0FE422EE63F5555D53F34
:101C30000000E03F86EBF9FFEA130000E813000024
:101C400010B500F051FF00F03DFE002010BD014630
:101C50004FF0FF302B2901D02D2901D1042016E0AF
:101C60002A2903D02F2901D0252901D103200EE0F4
:101C7000632907D0732905D0742903D0702901D0B6
:101C80006C2901D1022002E0782900D1012070479F
:101C90002DE9F04D1D460C4698B0174621F0004145
:101CA00023F00043002814BF4FF0010C4FF0000C4C
:101CB0000CEB440CFE4A0CEB02064FEA620C664544
:101CC0002BD33E0018BF012606EB45061644F94A01
:101CD000964222D3F84A53EA070C02D0944205D127
:101CE00048B918B000201146BDE8F08D002808BFA3
:101CF0004FF0000C01D04FF0010C0CEB440212F538
:101D0000001F0AD8002F14BF4FF0010C4FF0000C39
:101D10000CEB450212F5001F07D918B03A462B46C6
:101D20002146BDE8F04DFFF78ABB0022DFF88CA307
:101D3000002CB8BF534526DADFF884C36345A8BF3B
:101D4000022220DADFF870C39C451CDCDFF874C384
:101D50000CEB235CBCF1140F08DDCCF1340627FA40
:101D600006FC0CFA06F6BE420DD108E05FB9CCF1D4
:101D7000140623FA06FC0CFA06F69E4203D10CF078
:101D80000102C2F1020251EA000C19D1002D17DA4A
:101D9000002C18BF022A01D0012A07D00220FFF729
:101DA00075FB18B0BDE8F04DFFF73EBB0220FFF712
:101DB0006DFBFFF739FB18B081F00041BDE8F08DF5
:101DC000B7F1000C6CD1534525D104F1804212F5D6
:101DD000801201BF00280020B74918B008BFBDE835
:101DE000F08DB548884207DC002DA1BF604629462A
:101DF00018B0BDE8F08D07E0281E05DA80F000413C
:101E000018B06046BDE8F08DAF497944D1E90001D2
:101E100018B0BDE8F08DDFF8A0C2634525D1002DD4
:101E20001FDA19B1514512D1D8B909E0002840F0A4
:101E3000EC82A24A214618B062F31E01BDE8F08D83
:101E40000020214618B060F31E01BDE8F08D08DACD
:101E500018B02346BDE8F04D024600206146FEF76B
:101E6000A8BA18B02146BDE8F08D514518DAB5F191
:101E7000804F0DD0A5F1005CBCF1FF5C10D1B4F136
:101E8000000C0DDB18B06146BDE8F04D00F058BC09
:101E9000234618B00246BDE8F04D1946FEF717BAC2
:101EA000060024F0004C3BD1D9B1514533D1002C70
:101EB00006DD002DA1BF0020514618B0BDE8F08D11
:101EC000002C01DD002D1BDB002C13DA002D11DBB3
:101ED000012A4FF0000014BF78497C4918B0BDE8D2
:101EE000F08D022A18BF002C0AD0012A08D1002C3C
:101EF00006DA0AE0002CB8BF002D11DA012A04D05E
:101F0000002018B00146BDE8F08D18B000204FF059
:101F10000041BDE8F08DA1F14050B0F17F601AD0D2
:101F2000012000EBE47050EA020421D0624C521E02
:101F30004FF0000B104304BF4FF0000B644C65489A
:101F400083427CDD644A654893421FDD884217DB8B
:101F5000002D25DB37E0002C00DA4AB1022A0CBF45
:101F600001204FF0FF3018B0BDE8F04DFEF790BAF9
:101F70000120FFF78BFA18B0BDE8F04DFFF761BA0A
:101F80004D4A8A4202DC002D0ADC1CE0814202DA62
:101F9000002D18DA04E0484B994220DD002D12DDB7
:101FA0000220FFF773FAFFF752FA05460E460022A9
:101FB000534658462146FEF78AF918B066F31E01CB
:101FC0002846BDE8F08D0220FFF760FAFFF746FAD9
:101FD0000A46214618B062F31E01BDE8F08D0022CA
:101FE00030466146FEF76DF980460E466FF00102FD
:101FF000FEF74AFB4FF05532394BFEF765F9424682
:102000003346FEF764F90022364BFEF75DF982464F
:1020100042463346049110461946FEF758F9524697
:10202000049BFEF754F98A4600904FF0C0422E4BB5
:1020300040463146FEF74BF92C4A2B4B00E027E097
:10204000CDE9060151460098FEF741F9824601911B
:10205000274A284B40463146FEF739F95246019B44
:10206000FEF72FF982460B4602460591DDE906018F
:10207000FEF786F8DDE90623002688463046FEF79F
:1020800020F95246059BFEF71FF9024600F07EB983
:102090000020B1F5801F07DA352230466146FEF791
:1020A000F3FA06466FF0340000EB215024E0000004
:1020B000FFFF1F00FFFF0F000000F03F0000F07F58
:1020C0000000404301FCFFFF821100000000F0FF10
:1020D0000000F0BF0000E0410000F043FFFFEF3FD1
:1020E0005555D53F0000E03F4715F73FFE822B6571
:1020F00044DF5DF80BAE543EA0F2FF300190C1F317
:10210000130040F07F6141F040510291FE49884246
:10211000D8BF002004DDFD498142C8BF012001DD98
:102120000D9008E000200D900198401C019002984D
:10213000A0F5801002900299F54878440B910D9912
:1021400000EBC100D0E900230F9330460A920B99AF
:10215000FEF7B7F8CDE90601DDE90A2130460F9B0D
:10216000FEF70EF802460B460020EA49FEF721F979
:10217000059102460B460090DDE90601FEF7A7F83F
:102180001490E5488A464FF00008784402990068A8
:1021900012904FF0005040EA61010D980F9B01EB47
:1021A000804000F5002109910A9A1298FEF789F8FB
:1021B00032460B9BFEF788F842465346FEF787F8F7
:1021C0000646029140465146099B129AFEF77FF857
:1021D000DDE90623FEF778F83246029BFEF771F838
:1021E000059B009AFEF773F80091149A04905346E9
:1021F00010461946FEF76BF806460246C7480B46DE
:10220000029106217844FEF705FFCDE90510029BF7
:10221000324610461946FEF75AF8DDE90532FEF758
:1022200056F805910646534640461946149AFDF75E
:10223000A7FF009B049AFEF74AF83246059BFDF77C
:102240009FFFCDE905104246534610461946FEF75A
:102250003EF80022B24B02910A90FDF791FFDDE9B2
:102260000532FDF78DFF0E464246AD4B4046FEF768
:1022700028F8029B0A9AFEF724F8DDE90532FEF7FA
:1022800023F8424602910A90334610465146FEF723
:102290001EF8CDE906015346149A02990A98FEF7F2
:1022A00016F88A4602903346424600990498FEF793
:1022B0000EF85346029AFDF763FF82460B4602462C
:1022C0000591DDE90601FDF75BFFDDE9062300204E
:1022D00088460646FDF7F5FF5246059BFDF7F4FFDD
:1022E000824609914FF060428E4B30464146FDF7E1
:1022F000EEFF049006918C4A8A4B50460999FDF7EF
:10230000E6FF82460291894A894B30464146FDF7F5
:10231000DEFF5246029BFDF733FF864B7B440D9A4E
:1023200003EBC203D3E90023FDF72AFF0E900791C8
:102330000198FEF7ADF80591DDE9061382460E9A85
:102340000498FDF71DFF7C4A7A440D9B02EBC30302
:10235000D3E9002300930292FDF712FF5246059B3A
:10236000FDF70EFF0026884652463046059BFDF7D6
:10237000A8FF009B029AFDF7A4FF069B049AFDF7B5
:10238000A0FF079B0E9AFDF79FFF024600200B4619
:10239000029038462946FDF79AFF824601912B4666
:1023A00038461946029AFDF78CFF32464346FDF740
:1023B0008EFF5246019BFDF7E3FE07468A463246F2
:1023C000434629460298FDF782FF05460E463A46E7
:1023D0005346FDF7D5FE594A8846914221DBA8EBCA
:1023E000020353EA000210D12A463346FDF769FF83
:1023F000CDE90401524A534B38465146FDF7C0FE21
:10240000DDE90423FEF79AF821D20220FFF73EF817
:10241000FFF71DF80A46214618B062F31E01BDE819
:10242000F08D494B28F000429A4210D3474A08EBFE
:10243000020353EA00027FF4C6AD2A463346FDF795
:1024400040FF3A465346FEF779F87FF6BCAD0022CE
:10245000019228F000403E493E4A01EB2051824261
:1024600023DA481C4FF4801121FA00F040443A4A24
:10247000C0F30A517A44394BA1F2FF31CB4020EA34
:102480000303C0F3130040F48010C1F11401C840ED
:1024900012680190B8F1000FBCBF4042019028467D
:1024A0003146FDF70EFF05460E462A4633463846AE
:1024B0005146FDF765FE4FF000084246284B404666
:1024C0000591FDF704FFCDE90601264A264B40465B
:1024D0000599FDF7FCFE009102902A4633464046DE
:1024E0000599FDF7EEFE3A465346FDF7EDFE1F4A0D
:1024F0001F4BFDF7ECFE009B029AFDF741FE0746DD
:10250000884602460B4635E08E9803007AB60B00EB
:102510009A0D00000000F03F020E0000000D0000C8
:102520000000084009C7EE3FFD033ADCF5015B14EB
:10253000E02F3EBED80B00009C0B00000000904036
:10254000FE822B654715973C00CC904000346F3FCE
:1025500001FCFFFF0000E03F180B0000FFFF0F0031
:10256000432EE63F396CA80C615C20BEEF39FAFEC1
:10257000422EE63FDDE90601FDF702FEDDE9062316
:1025800005460E46FDF79DFE3A464346FDF79CFE86
:102590000F462A463346009010461946FDF797FE2F
:1025A000824602462E4888460B4605217844FEF7AF
:1025B00031FD52464346FDF78AFE2A463346FDF773
:1025C00083FE80468A463B4628463146009AFDF700
:1025D0007EFE3B46009AFDF7D3FD06910090002257
:1025E0004FF0804340465146FDF76BFE0F460C907E
:1025F0004246534628463146FDF769FE3B460C9A53
:10260000FDF7D7FE069B009AFDF75BFE2A46334690
:10261000FDF757FE0022134BFDF756FE05460198C5
:102620000E4601EB00510815002810DC2846314603
:10263000019AFEF729F8FEF797FA042808BFFEF77B
:102640000DFF28463146019AFEF71EF805460B4657
:1026500018B02A4658462146BDE8F04DFDF737BE72
:10266000880900000000F03F10B503460C460B48F7
:102670000088884211D009480178072A0CD2DFE887
:1026800002F00405060708090A0005E004E003E07B
:1026900002E001E000E000BF00BF10BD000100202B
:1026A00000B5254B21F0004287B09A4203DC00229E
:1026B000134600922BE0214B9A4208D140B94FF0CB
:1026C0000100FEF7E3FEFEF7BCFE07B000BD03DB32
:1026D000FEF7B2FE07B000BD02AAFEF759FA10F0ED
:1026E00003014FF001000DD0012914D002291AD0A6
:1026F0000DF1080C9CE80F00FEF70EFC07B081F00E
:10270000004100BD0DF1080C00909CE80F00FEF7A1
:10271000D7FC07B000BD0DF1080C9CE80F00FEF7D8
:10272000FBFB07B000BD0DF1080C00909CE80F000A
:10273000FEF7C6FCE2E70000FB21E93F0000F07F66
:102740002DE9F04106460F46FDF7B5FF041E0D4684
:1027500018BF0120284320F00040C0F17F6000F145
:10276000E040C00F0ED0301C18BF0120384320F0CD
:102770000040C0F17F6000F1E040C00F04BF0120C5
:10278000FEF784FE20462946BDE8F0812DE9FF5F73
:1027900081464FF0000B00210F4688460D460E463D
:1027A0008A46002425E00AF1010A19F804002D28C0
:1027B00002D14FF0010B1BE019F804002E2800D1C4
:1027C0001CE019F80410A1F13000FDF761FE0022B1
:1027D000224BCDE9020138464146FDF778FDCDE9AF
:1027E0000001DDE90223FDF7CBFC0746884600BF68
:1027F000641C4846FDF7B4FCA042D4D800BF48464C
:10280000FDF7AEFC441E14E019F80410A1F13000ED
:10281000FDF73EFE2A463346CDE90001FDF7B0FC48
:1028200000220E4BCDE90201FDF7C3FD05460E4621
:10283000641E5445E8DA3A46434628463146FDF7D9
:102840009FFC05460E46BBF1000F01D086F0004606
:102850002846314604B0BDE8F09F00000000244047
:1028600010B5164B21F00042012486B09A4203DCD9
:102870000022134600941CE0114B9A4208D140B943
:102880004FF00100FEF702FEFEF7DBFD06B010BDC3
:1028900003DBFEF7D1FD06B010BD02AAFEF778F902
:1028A00000F00100A4EB40000DF1080C00909CE842
:1028B0000F00FEF77BFC06B010BD0000FB21E93FD6
:1028C0000000F07F1CB5012467A16948FDF74FFCAB
:1028D000002100910A46A30765480191FDF7DEFF3C
:1028E000644A03C20022644B6249009403C9FEF7A4
:1028F000D3FD62490870641C61A15D48FDF737FC97
:10290000002100910A46604B59480191FDF7C6FF2E
:10291000584A03C200225C4B5649009403C9FEF793
:10292000BBFD56490870641C58A15148FDF71FFCB7
:10293000002100910A46504B4D480191FDF7AEFF32
:102940004C4A03C2002213464A49009403C9FEF7C9
:10295000A3FD4A490870641C4FA14548FDF707FCD8
:10296000002100910A46444B41480191FDF796FF32
:10297000404A03C24A4A4B4B3E49009403C9FEF702
:102980008BFD3E490870641C47A13948FDF7EFFBF9
:10299000002000900246384B01903548FDF77EFF3D
:1029A000344A03C20022424B3249009403C9FEF765
:1029B00073FD32490870641C3EA12D48FDF7D7FB1A
:1029C0000020009002462C4B01902948FDF766FF3D
:1029D000284A03C2394A3A4B2649009403C9FEF7F4
:1029E0005BFD26490870641C36A12148FDF7BFFB3A
:1029F000002100910A46204B1D480191FDF74EFF32
:102A00001C4A03C2314A324B1A49009403C9FEF7EB
:102A100043FD1A490870641C2EA11548FDF7A7FB59
:102A2000002000900246184B01901148FDF736FF38
:102A3000104A03C2002213460E49009403C9FEF750
:102A40002BFD0E490870601CC4B225A10848FDF793
:102A50008EFB002000900246074B01900448FDF7D2
:102A60001DFF044A03C21CBD28782970322D310095
:102A70000C010020280000200000F03F3100002061
:102A80002878292F332D310000000840322E3731AD
:102A900038702878292D3100632878292B310000DF
:102AA0006F1283C0CA210940322A2878292B3100AD
:102AB0000000E0BF732878292B3100006EFAB31FA5
:102AC0002922F9BF2D312B7428782900E08644543F
:102AD000FB21E93F322E3731386C2878292D31001F
:102AE00033252878292D31001CB516220B2140F200
:102AF000E57000F06DF917220B2140F2E57000F04F
:102B000067F918220B2140F2E57000F061F91922F3
:102B10000B2140F2E57000F05BF91A220B2140F224
:102B2000E57000F055F91B220B2140F2E57000F032
:102B30004FF91C220B2140F2E57000F049F91422F4
:102B4000012140F2E57000F043F91422022140F225
:102B5000E57000F03DF9012203214FF4FA6000F026
:102B600037F94FF4FA60FEF7A0FE40F2D470FEF79A
:102B70009CFE40F26C70FEF798FE40F26D70FEF71E
:102B800094FE01200090034602460146019040F663
:102B9000B83000F0D1F8042003210C231C22CDE929
:102BA00000100B2140F2E47000F0C6F80020009005
:102BB00003461C220B21019040F2E57000F0BCF8A6
:102BC00001200090034612220221019040F2E4709D
:102BD00000F0B2F840F2E470164948810B200881F9
:102BE0000320C88001208880488008800022114688
:102BF0001046FFF739FD012200210846FFF734FD9A
:102C0000022200210846FFF72FFD0322002108467B
:102C1000FFF72AFD042200210846FFF725FD0522C3
:102C200000210846FFF720FD062200210846FFF795
:102C30001BFD1CBD0001002070B5002600240025EE
:102C4000374E3848B6FBF0F437480088A0423AD0F7
:102C500035490C8040F2B2750EE02846FEF725FE9D
:102C600030B1B4F5B77F02D3A4F5B77402E006E043
:102C7000A4F26D14681C85B2B4F5B67FEDD800BF20
:102C80002A484581002516E028494889FEF70DFEAF
:102C900030B1012D04D11D2C01D31D3C09E00CE005
:102CA0002348405DA04203D82148405D241A00E03B
:102CB00003E0681C85B21C2CE6D200BF681C1B49CF
:102CC0000881601CC8801748B6FBF0F100FB116456
:102CD0004FF46160B4FBF0F0144988804FF46160F8
:102CE000B4FBF0F100FB11403C21B0FBF1F00F49C7
:102CF00048804FF46160B4FBF0F100FB11403C21CF
:102D0000B0FBF1F201FB1200084908800B46DA889B
:102D10001989588900F05CF806490880002070BDC8
:102D200020FBB00B805101001A00002000010020A0
:102D3000902E0008180000202DE9F04F05460F46A0
:102D400092469B46DDE90989002640F2B270854231
:102D500003DB40F63300854202DD0120BDE8F08F41
:102D600040F2B2740AE02046FEF79FFD10B114480D
:102D7000064401E013480644601C84B2AC42F2DB16
:102D8000781E87B2002410E00F48005D40F2A321B6
:102D9000484306EBC0162846FEF787FD18B1012C04
:102DA00001D10A480644601C84B2BC42ECDB00BF7F
:102DB00000BF00BF00BFFFF73FFF0020CEE70000CD
:102DC0000085E2018033E101902E0008805101006E
:102DD0002DE9F04F05461646012901D0022904D1FC
:102DE00001F10C0081B2681E85B2642095FBF0F001
:102DF00082B2642095FBF0F800FB185083B20F46B6
:102E0000B44607F101094FF01A0A09FB0AF94FF01D
:102E10000A0A99FBFAF94FEAE27A02EB9A7A4FEA48
:102E2000AA0A4FF0020B0BFB12AA9A444FEAE37B6B
:102E300003EB9B7B0AEBAB0AD144E144A9F101040B
:102E4000072094FBF0F800FB1840DFF83480A8F866
:102E50000000002C10DA60424FF0070890FBF8F0F9
:102E6000401CC0EBC000204490FBF8F908FB19009F
:102E7000DFF80C80A8F8000001480078BDE8F08F6A
:102E800018000020000303060104060205000305E4
:102E90001F1C1F1E1F1E1F1F1E1F1E1F00000000C5
:102EA00004FA97999999D93FAF788E1DC571CC3F97
:102EB0009FC678D0099AC33F935555555555E53F60
:102EC000599322942449D23FDE03CB966446C73FF0
:102ED00044523EDF12F1C23F000000000000F03F0C
:102EE000000000000000F83F0000000000000000AB
:102EF0000000004003B8E23F0000000000000000B6
:102F000006D0CF43EBFD4C3E033333333333E33F43
:102F1000FFAB6FDBB66DDB3F4D268F515555D53F6F
:102F200001411DA96074D13F65DBC9934A86CD3F3D
:102F3000EF4E454A287ECA3F3E5555555555C53F2B
:102F400093BDBE166CC166BF2CDE25AF6A56113F1D
:102F5000F16BD2C541BDBBBED0A4BE726937663E1F
:102F60004C5555555555A53F7751C1166CC156BFA7
:102F70009015CB19A001FA3EAD529C804F7E92BEB7
:102F8000C4B1B4BD9EEE213ED43888BEE9FAA8BDD6
:102F9000000000000000000000004054FB21F93F49
:102FA0003163621A61B4D03D0000601A61B4D03D53
:102FB0007370032E8A19A33B0000002E8A19A33BCD
:102FC000C14920259A837B390000000000000000E1
:102FD0006E83F9A22915444ED15727FCC0DD34F584
:102FE000999562DB4190433CAB6351FE61C5BBDE0A
:102FF0003A6E24B7E0D24D42EA2E49061C92D1091E
:103000001CEB1DFE3EA729B1F53582E88444BB2E9A
:1030100026709CE9417E5FB439D69139F4395383E7
:103020008B5F849C3B28F9BDFF97F81F0F9805DE46
:103030008B112FEF1F6D0A5ACF7E366DB709CB2744
:10304000663F464F2DEA5F9EC7BA27757BF1E5EBD9
:10305000F739073DEA92528AB15FFB6B085D8D1F1D
:10306000A6F810111111813FD561C119A0012ABF25
:103070007DFEB157E31DC73EEB9C2B8AE6E55ABEA9
:103080007CD5CF5A3AD9E53D7AFE10111111C13FD6
:1030900037D60684F464963F280356C9226D6D3FE7
:1030A0000165F2F2D844433FA69237A0887E143FD0
:1030B000735360DBCB75F3BEFE41B31BBAA1AB3FCC
:1030C00093846EE9E326823F1583E0FEC8DB573F19
:1030D00068108D1AF726303FE9A7F0320FB8123F7B
:1030E000D47ABF74702AFB3E08310008000000202B
:1030F000380000006C14000840310008380000203F
:10310000A00500007C140008000000000000000082
:1031100000000000000000000100000000000000AE
:10312000000000000000000000000000000000009F
:10313000000000000000000000000000000000008F
:0400000508000131BD
:00000001FF
